{
    "abi": [
        {
            "inputs": [
                {
                    "internalType": "uint256",
                    "name": "_payoutInterval",
                    "type": "uint256"
                }
            ],
            "stateMutability": "nonpayable",
            "type": "constructor"
        },
        {
            "inputs": [],
            "name": "calculateState",
            "outputs": [],
            "stateMutability": "nonpayable",
            "type": "function"
        },
        {
            "inputs": [
                {
                    "internalType": "uint256",
                    "name": "retirementTime",
                    "type": "uint256"
                },
                {
                    "internalType": "uint256",
                    "name": "benefitDuration",
                    "type": "uint256"
                }
            ],
            "name": "createPensioner",
            "outputs": [],
            "stateMutability": "nonpayable",
            "type": "function"
        },
        {
            "inputs": [],
            "name": "createdAtTime",
            "outputs": [
                {
                    "internalType": "uint256",
                    "name": "",
                    "type": "uint256"
                }
            ],
            "stateMutability": "view",
            "type": "function"
        },
        {
            "inputs": [],
            "name": "fundPension",
            "outputs": [],
            "stateMutability": "payable",
            "type": "function"
        },
        {
            "inputs": [],
            "name": "getPensionerList",
            "outputs": [
                {
                    "internalType": "address[]",
                    "name": "",
                    "type": "address[]"
                },
                {
                    "internalType": "contract Pensioner[]",
                    "name": "",
                    "type": "address[]"
                }
            ],
            "stateMutability": "view",
            "type": "function"
        },
        {
            "inputs": [
                {
                    "internalType": "address",
                    "name": "",
                    "type": "address"
                }
            ],
            "name": "isPensionerCreated",
            "outputs": [
                {
                    "internalType": "uint8",
                    "name": "",
                    "type": "uint8"
                }
            ],
            "stateMutability": "view",
            "type": "function"
        },
        {
            "inputs": [],
            "name": "lastPayoutDate",
            "outputs": [
                {
                    "internalType": "uint256",
                    "name": "",
                    "type": "uint256"
                }
            ],
            "stateMutability": "view",
            "type": "function"
        },
        {
            "inputs": [],
            "name": "payoutInterval",
            "outputs": [
                {
                    "internalType": "uint256",
                    "name": "",
                    "type": "uint256"
                }
            ],
            "stateMutability": "view",
            "type": "function"
        },
        {
            "inputs": [
                {
                    "internalType": "uint256",
                    "name": "",
                    "type": "uint256"
                }
            ],
            "name": "pensionerList",
            "outputs": [
                {
                    "internalType": "address payable",
                    "name": "",
                    "type": "address"
                }
            ],
            "stateMutability": "view",
            "type": "function"
        },
        {
            "inputs": [
                {
                    "internalType": "address",
                    "name": "",
                    "type": "address"
                }
            ],
            "name": "pensioners",
            "outputs": [
                {
                    "internalType": "contract Pensioner",
                    "name": "",
                    "type": "address"
                }
            ],
            "stateMutability": "view",
            "type": "function"
        },
        {
            "inputs": [
                {
                    "internalType": "uint256",
                    "name": "benefitDuration",
                    "type": "uint256"
                }
            ],
            "name": "setBenefitDuration",
            "outputs": [],
            "stateMutability": "nonpayable",
            "type": "function"
        },
        {
            "inputs": [
                {
                    "internalType": "uint256",
                    "name": "retireDate",
                    "type": "uint256"
                }
            ],
            "name": "setRetirementTime",
            "outputs": [],
            "stateMutability": "nonpayable",
            "type": "function"
        },
        {
            "inputs": [],
            "name": "setRetirementTimeNow",
            "outputs": [],
            "stateMutability": "nonpayable",
            "type": "function"
        }
    ],
    "bytecode": "608060405234801561001057600080fd5b506040516119273803806119278339818101604052602081101561003357600080fd5b505160016000554260048190556005556006556118d2806100556000396000f3fe6080604052600436106100c25760003560e01c8063685e886a1161007f5780639689aa0f116100595780639689aa0f146102f95780639c8898b81461030e578063f0b0aeaa14610323578063f2d5c44b14610338576100c2565b8063685e886a146101f75780637a84bad0146102215780639462d9bf146102cf576100c2565b806309e785e1146100c75780630b34a165146100ee5780631b88190a14610103578063308f5db71461014c57806361ada3091461019b57806365c9cd4b146101c7575b600080fd5b3480156100d357600080fd5b506100dc610340565b60408051918252519081900360200190f35b3480156100fa57600080fd5b506100dc610346565b34801561010f57600080fd5b506101366004803603602081101561012657600080fd5b50356001600160a01b031661034c565b6040805160ff9092168252519081900360200190f35b34801561015857600080fd5b5061017f6004803603602081101561016f57600080fd5b50356001600160a01b0316610361565b604080516001600160a01b039092168252519081900360200190f35b3480156101a757600080fd5b506101c5600480360360208110156101be57600080fd5b503561037c565b005b3480156101d357600080fd5b506101c5600480360360408110156101ea57600080fd5b5080359060200135610558565b34801561020357600080fd5b506101c56004803603602081101561021a57600080fd5b50356106ae565b34801561022d57600080fd5b5061023661081e565b604051808060200180602001838103835285818151815260200191508051906020019060200280838360005b8381101561027a578181015183820152602001610262565b50505050905001838103825284818151815260200191508051906020019060200280838360005b838110156102b95781810151838201526020016102a1565b5050505090500194505050505060405180910390f35b3480156102db57600080fd5b5061017f600480360360208110156102f257600080fd5b5035610990565b34801561030557600080fd5b506100dc6109b7565b34801561031a57600080fd5b506101c56109bd565b34801561032f57600080fd5b506101c5610f6b565b6101c56110ea565b60065481565b60045481565b60026020526000908152604090205460ff1681565b6001602052600090815260409020546001600160a01b031681565b3360009081526002602052604090205460ff166103db576040805162461bcd60e51b815260206004820152601860248201527714195b9cda5bdb995c88191bd95cc81b9bdd08195e1a5cdd60421b604482015290519081900360640190fd5b42811015610430576040805162461bcd60e51b815260206004820152601960248201527f44617465206d757374206265206120667574757265206f6e6500000000000000604482015290519081900360640190fd5b3360009081526001602090815260409182902054825163f240313f60e01b815292516001600160a01b0390911692839263f240313f92600480840193829003018186803b15801561048057600080fd5b505afa158015610494573d6000803e3d6000fd5b505050506040513d60208110156104aa57600080fd5b5051156104e85760405162461bcd60e51b815260040180806020018281038252602b8152602001806117e3602b913960400191505060405180910390fd5b336000908152600160205260408082205481516305b93a9b60e21b81526004810186905291516001600160a01b03909116926316e4ea6c926024808201939182900301818387803b15801561053c57600080fd5b505af1158015610550573d6000803e3d6000fd5b505050505050565b428210156105975760405162461bcd60e51b815260040180806020018281038252602a81526020018061180e602a913960400191505060405180910390fd5b3360009081526002602052604090205460ff16156105fc576040805162461bcd60e51b815260206004820152601860248201527f50656e73696f6e657220616c7265616479206578697374730000000000000000604482015290519081900360640190fd5b6000828260405161060c90611454565b9182526020820152604080519182900301906000f080158015610633573d6000803e3d6000fd5b5033600081815260016020818152604080842080546001600160a01b039097166001600160a01b031997881617905560029091528220805460ff1916821790556003805491820181559091527fc2575a0e9e593c00f959f8c92f12db2869c3395a3b0502d05e2516446f71f85b018054909216179055505050565b3360009081526002602052604090205460ff1661070d576040805162461bcd60e51b815260206004820152601860248201527714195b9cda5bdb995c88191bd95cc81b9bdd08195e1a5cdd60421b604482015290519081900360640190fd5b33600090815260016020908152604091829020548251632305e02560e21b815292516001600160a01b039091169242928492638c178094926004808201939291829003018186803b15801561076157600080fd5b505afa158015610775573d6000803e3d6000fd5b505050506040513d602081101561078b57600080fd5b505110156107ca5760405162461bcd60e51b815260040180806020018281038252603f815260200180611838603f913960400191505060405180910390fd5b3360009081526001602052604080822054815163342f443560e11b81526004810186905291516001600160a01b039091169263685e886a926024808201939182900301818387803b15801561053c57600080fd5b606080606060038054905067ffffffffffffffff8111801561083f57600080fd5b50604051908082528060200260200182016040528015610869578160200160208202803683370190505b5060035490915060609067ffffffffffffffff8111801561088957600080fd5b506040519080825280602002602001820160405280156108b3578160200160208202803683370190505b50905060005b60035481101561098657600381815481106108d057fe5b9060005260206000200160009054906101000a90046001600160a01b03168382815181106108fa57fe5b60200260200101906001600160a01b031690816001600160a01b031681525050600160006003838154811061092b57fe5b60009182526020808320909101546001600160a01b039081168452908301939093526040909101902054835191169083908390811061096657fe5b6001600160a01b03909216602092830291909101909101526001016108b9565b5090925090509091565b6003818154811061099d57fe5b6000918252602090912001546001600160a01b0316905081565b60055481565b60026000541415610a15576040805162461bcd60e51b815260206004820152601f60248201527f5265656e7472616e637947756172643a207265656e7472616e742063616c6c00604482015290519081900360640190fd5b60026000556006546005544291011115610a2e57610f64565b42600555600080610a3d611247565b905060005b600354811015610c3c57600060038281548110610a5b57fe5b60009182526020808320909101546001600160a01b039081168084526001835260409384902054845163f240313f60e01b8152945191955090911692839263f240313f92600480840193829003018186803b158015610ab957600080fd5b505afa158015610acd573d6000803e3d6000fd5b505050506040513d6020811015610ae357600080fd5b50518015610b525750806001600160a01b0316635b57a1e56040518163ffffffff1660e01b815260040160206040518083038186803b158015610b2557600080fd5b505afa158015610b39573d6000803e3d6000fd5b505050506040513d6020811015610b4f57600080fd5b50515b8015610bc257506000816001600160a01b03166344c4dc316040518163ffffffff1660e01b815260040160206040518083038186803b158015610b9457600080fd5b505afa158015610ba8573d6000803e3d6000fd5b505050506040513d6020811015610bbe57600080fd5b5051115b15610c3257806001600160a01b031663d26e7b4d6040518163ffffffff1660e01b815260040160206040518083038186803b158015610c0057600080fd5b505afa158015610c14573d6000803e3d6000fd5b505050506040513d6020811015610c2a57600080fd5b505194909401935b5050600101610a42565b506000805b600354811015610ec057600060038281548110610c5a57fe5b60009182526020808320909101546001600160a01b039081168084526001835260409384902054845163f240313f60e01b8152945191955090911692839263f240313f92600480840193829003018186803b158015610cb857600080fd5b505afa158015610ccc573d6000803e3d6000fd5b505050506040513d6020811015610ce257600080fd5b50518015610d515750806001600160a01b0316635b57a1e56040518163ffffffff1660e01b815260040160206040518083038186803b158015610d2457600080fd5b505afa158015610d38573d6000803e3d6000fd5b505050506040513d6020811015610d4e57600080fd5b50515b8015610dc157506000816001600160a01b03166344c4dc316040518163ffffffff1660e01b815260040160206040518083038186803b158015610d9357600080fd5b505afa158015610da7573d6000803e3d6000fd5b505050506040513d6020811015610dbd57600080fd5b5051115b15610eb65760035460009060001901841415610de05750838503610e5d565b6000826001600160a01b031663d26e7b4d6040518163ffffffff1660e01b815260040160206040518083038186803b158015610e1b57600080fd5b505afa158015610e2f573d6000803e3d6000fd5b505050506040513d6020811015610e4557600080fd5b505190508787820281610e5457fe5b04958601959150505b60088054600181019091557ff3f7a9fe364faab93b216da50a3214154f22a0a2b415b23a84c8169e8b636ee30180546001600160a01b0319166001600160a01b0385169081179091556000908152600760205260409020555b5050600101610c41565b5060005b600854811015610f5357600060088281548110610edd57fe5b60009182526020808320909101546001600160a01b03168083526007909152604080832054905191935091839183156108fc0291849190818181858888f19350505050158015610f31573d6000803e3d6000fd5b50506001600160a01b0316600090815260076020526040812055600101610ec4565b50610f6060086000611461565b5050505b6001600055565b3360009081526002602052604090205460ff16610fca576040805162461bcd60e51b815260206004820152601860248201527714195b9cda5bdb995c88191bd95cc81b9bdd08195e1a5cdd60421b604482015290519081900360640190fd5b3360009081526001602090815260409182902054825163f240313f60e01b815292516001600160a01b0390911692839263f240313f92600480840193829003018186803b15801561101a57600080fd5b505afa15801561102e573d6000803e3d6000fd5b505050506040513d602081101561104457600080fd5b5051156110825760405162461bcd60e51b815260040180806020018281038252602b8152602001806117e3602b913960400191505060405180910390fd5b33600090815260016020526040808220548151636c1fe8db60e01b815291516001600160a01b0390911692636c1fe8db926004808201939182900301818387803b1580156110cf57600080fd5b505af11580156110e3573d6000803e3d6000fd5b5050505050565b3360009081526002602052604090205460ff16611149576040805162461bcd60e51b815260206004820152601860248201527714195b9cda5bdb995c88191bd95cc81b9bdd08195e1a5cdd60421b604482015290519081900360640190fd5b3360009081526001602090815260409182902054825163f240313f60e01b815292516001600160a01b0390911692839263f240313f92600480840193829003018186803b15801561119957600080fd5b505afa1580156111ad573d6000803e3d6000fd5b505050506040513d60208110156111c357600080fd5b5051156112015760405162461bcd60e51b81526004018080602001828103825260268152602001806118776026913960400191505060405180910390fd5b806001600160a01b03166330d2c0d3346040518263ffffffff1660e01b815260040180828152602001915050600060405180830381600087803b1580156110cf57600080fd5b600080808047815b6003548110156113eb5760006003828154811061126857fe5b60009182526020808320909101546001600160a01b039081168084526001835260409384902054845163f240313f60e01b8152945191955090911692839263f240313f92600480840193829003018186803b1580156112c657600080fd5b505afa1580156112da573d6000803e3d6000fd5b505050506040513d60208110156112f057600080fd5b50511561136d57806001600160a01b0316635b57a1e56040518163ffffffff1660e01b815260040160206040518083038186803b15801561133057600080fd5b505afa158015611344573d6000803e3d6000fd5b505050506040513d602081101561135a57600080fd5b505115611368576001909401935b6113e1565b6000816001600160a01b03166344c4dc316040518163ffffffff1660e01b815260040160206040518083038186803b1580156113a857600080fd5b505afa1580156113bc573d6000803e3d6000fd5b505050506040513d60208110156113d257600080fd5b505111156113e1576001909501945b505060010161124f565b50816113fe576000945050505050611451565b82611416576064601482025b04945050505050611451565b81831115611429576064605a820261140a565b81836064028161143557fe5b04935060648481605a840204028161144957fe5b049450505050505b90565b6103478061149c83390190565b508054600082559060005260206000209081019061147f9190611482565b50565b5b808211156114975760008155600101611483565b509056fe608060405234801561001057600080fd5b506040516103473803806103478339818101604052604081101561003357600080fd5b50805160209091015160008055426001556002919091556003556102eb8061005c6000396000f3fe608060405234801561001057600080fd5b50600436106100b45760003560e01c80636c1fe8db116100715780636c1fe8db146101505780638c178094146101585780639e0c793014610160578063d26e7b4d14610168578063e29796bf14610170578063f240313f14610178576100b4565b80630b34a165146100b957806316e4ea6c146100d357806330d2c0d3146100f257806344c4dc311461010f5780635b57a1e514610117578063685e886a14610133575b600080fd5b6100c1610180565b60408051918252519081900360200190f35b6100f0600480360360208110156100e957600080fd5b5035610186565b005b6100f06004803603602081101561010857600080fd5b50356101e4565b6100c1610233565b61011f610239565b604080519115158252519081900360200190f35b6100f06004803603602081101561014957600080fd5b503561024b565b6100f0610250565b6100c161025b565b6100c1610265565b6100c161026b565b6100c1610280565b61011f610286565b60015481565b428110156101db576040805162461bcd60e51b815260206004820152601960248201527f44617465206d757374206265206120667574757265206f6e6500000000000000604482015290519081900360640190fd5b60001901600255565b6101ec610286565b156102285760405162461bcd60e51b81526004018080602001828103825260268152602001806102906026913960400191505060405180910390fd5b600080549091019055565b60005481565b60004261024461025b565b1015905090565b600355565b61025942610186565b565b6003546002540190565b60035481565b60006003546000548161027a57fe5b04905090565b60025481565b6002544210159056fe50656e73696f6e6572206d7573742062652061637469766520746f20636f6e74726962757465a2646970667358221220a79ded271178dacf15b842caa0a53a87e21e76743b8915e31896b9a01eccc65664736f6c634300060c003350656e73696f6e65722063616e6e6f7420726574697265206166746572206265696e67207265746972656443616e206e6f7420726574697265206265666f7265206372656174696e6720746865206163636f756e7450656e73696f6e65722063616e6e6f7420696e6372656173652062656e65666974206475726174696f6e20616674657220697420686173206578706972656443616e6e6f7420636f6e7472696275746520746f20612072657469726564206163636f756e74a2646970667358221220aa643cd0265977fb544c1fd472f836dc5928abaad314faf039812954d904591164736f6c634300060c0033",
    "bytecodeSha1": "abf844d23127d77fb9cbf3eacd6ed378c0594d3c",
    "compiler": {
        "evm_version": "istanbul",
        "optimizer": {
            "enabled": true,
            "runs": 200
        },
        "version": "0.6.12+commit.27d51765"
    },
    "contractName": "PensionSystem",
    "language": "Solidity",
    "natspec": {
        "author": "Alvaro SÃ¡nchez GarcÃ­a",
        "details": "This contract is intended to be run with Pensioner.solThe use of a PROPORTION_FACTOR is to workaround the non existance of floating numbers",
        "kind": "dev",
        "methods": {
            "calculateState()": {
                "details": "The pensioner must be retiredThe pensioner must have an active benefit windowThe pensioner must have funded the system",
                "notice": "Calculates the state of the pension systemPays the pensions to the elegible pensioners"
            },
            "constructor": {
                "params": {
                    "_payoutInterval": "The interval at which the payouts will roll out"
                }
            },
            "createPensioner(uint256,uint256)": {
                "details": "The address must not be already registeredThe retirementTime must be a future date",
                "notice": "Creates a pensioner",
                "params": {
                    "benefitDuration": "Timestamp representing the amount of time the pensioner will be elegible for benefits",
                    "retirementTime": "Timestamp at which the new pensioner wants to retire"
                }
            },
            "fundPension()": {
                "details": "The pensioner must existThe pensioner must not be retired",
                "notice": "Adds an amount to the pension attributable to a pensioner"
            },
            "getPensionerList()": {
                "details": "It is a workaround since we cannot return a mapping directly",
                "notice": "Returns the mapping of pensioners in 2 separate arrays, one for address and another forpensioner address"
            },
            "setBenefitDuration(uint256)": {
                "details": "The pensioner must existThe duration must be positiveThe pension must be active",
                "notice": "Changes a pensioner benefit duration"
            },
            "setRetirementTime(uint256)": {
                "details": "The pensioner must existThe date of retirement must be a future oneThe pensioner must not be retired",
                "notice": "Changes a pensioner retirement time"
            },
            "setRetirementTimeNow()": {
                "details": "The pensioner must existThe pensioner must not be retired",
                "notice": "Changes a pensioner retirement time for now"
            }
        },
        "notice": "All timestamps are expressed using Unix time https://en.wikipedia.org/wiki/Unix_timeAll durations are expressed in seconds",
        "title": "A representation of a pension system",
        "version": 1
    },
    "opcodes": "PUSH1 0x80 PUSH1 0x40 MSTORE PUSH1 0x4 CALLDATASIZE LT PUSH2 0xC2 JUMPI PUSH1 0x0 CALLDATALOAD PUSH1 0xE0 SHR DUP1 PUSH4 0x685E886A GT PUSH2 0x7F JUMPI DUP1 PUSH4 0x9689AA0F GT PUSH2 0x59 JUMPI DUP1 PUSH4 0x9689AA0F EQ PUSH2 0x2F9 JUMPI DUP1 PUSH4 0x9C8898B8 EQ PUSH2 0x30E JUMPI DUP1 PUSH4 0xF0B0AEAA EQ PUSH2 0x323 JUMPI DUP1 PUSH4 0xF2D5C44B EQ PUSH2 0x338 JUMPI PUSH2 0xC2 JUMP JUMPDEST DUP1 PUSH4 0x685E886A EQ PUSH2 0x1F7 JUMPI DUP1 PUSH4 0x7A84BAD0 EQ PUSH2 0x221 JUMPI DUP1 PUSH4 0x9462D9BF EQ PUSH2 0x2CF JUMPI PUSH2 0xC2 JUMP JUMPDEST DUP1 PUSH4 0x9E785E1 EQ PUSH2 0xC7 JUMPI DUP1 PUSH4 0xB34A165 EQ PUSH2 0xEE JUMPI DUP1 PUSH4 0x1B88190A EQ PUSH2 0x103 JUMPI DUP1 PUSH4 0x308F5DB7 EQ PUSH2 0x14C JUMPI DUP1 PUSH4 0x61ADA309 EQ PUSH2 0x19B JUMPI DUP1 PUSH4 0x65C9CD4B EQ PUSH2 0x1C7 JUMPI JUMPDEST PUSH1 0x0 DUP1 REVERT JUMPDEST CALLVALUE DUP1 ISZERO PUSH2 0xD3 JUMPI PUSH1 0x0 DUP1 REVERT JUMPDEST POP PUSH2 0xDC PUSH2 0x340 JUMP JUMPDEST PUSH1 0x40 DUP1 MLOAD SWAP2 DUP3 MSTORE MLOAD SWAP1 DUP2 SWAP1 SUB PUSH1 0x20 ADD SWAP1 RETURN JUMPDEST CALLVALUE DUP1 ISZERO PUSH2 0xFA JUMPI PUSH1 0x0 DUP1 REVERT JUMPDEST POP PUSH2 0xDC PUSH2 0x346 JUMP JUMPDEST CALLVALUE DUP1 ISZERO PUSH2 0x10F JUMPI PUSH1 0x0 DUP1 REVERT JUMPDEST POP PUSH2 0x136 PUSH1 0x4 DUP1 CALLDATASIZE SUB PUSH1 0x20 DUP2 LT ISZERO PUSH2 0x126 JUMPI PUSH1 0x0 DUP1 REVERT JUMPDEST POP CALLDATALOAD PUSH1 0x1 PUSH1 0x1 PUSH1 0xA0 SHL SUB AND PUSH2 0x34C JUMP JUMPDEST PUSH1 0x40 DUP1 MLOAD PUSH1 0xFF SWAP1 SWAP3 AND DUP3 MSTORE MLOAD SWAP1 DUP2 SWAP1 SUB PUSH1 0x20 ADD SWAP1 RETURN JUMPDEST CALLVALUE DUP1 ISZERO PUSH2 0x158 JUMPI PUSH1 0x0 DUP1 REVERT JUMPDEST POP PUSH2 0x17F PUSH1 0x4 DUP1 CALLDATASIZE SUB PUSH1 0x20 DUP2 LT ISZERO PUSH2 0x16F JUMPI PUSH1 0x0 DUP1 REVERT JUMPDEST POP CALLDATALOAD PUSH1 0x1 PUSH1 0x1 PUSH1 0xA0 SHL SUB AND PUSH2 0x361 JUMP JUMPDEST PUSH1 0x40 DUP1 MLOAD PUSH1 0x1 PUSH1 0x1 PUSH1 0xA0 SHL SUB SWAP1 SWAP3 AND DUP3 MSTORE MLOAD SWAP1 DUP2 SWAP1 SUB PUSH1 0x20 ADD SWAP1 RETURN JUMPDEST CALLVALUE DUP1 ISZERO PUSH2 0x1A7 JUMPI PUSH1 0x0 DUP1 REVERT JUMPDEST POP PUSH2 0x1C5 PUSH1 0x4 DUP1 CALLDATASIZE SUB PUSH1 0x20 DUP2 LT ISZERO PUSH2 0x1BE JUMPI PUSH1 0x0 DUP1 REVERT JUMPDEST POP CALLDATALOAD PUSH2 0x37C JUMP JUMPDEST STOP JUMPDEST CALLVALUE DUP1 ISZERO PUSH2 0x1D3 JUMPI PUSH1 0x0 DUP1 REVERT JUMPDEST POP PUSH2 0x1C5 PUSH1 0x4 DUP1 CALLDATASIZE SUB PUSH1 0x40 DUP2 LT ISZERO PUSH2 0x1EA JUMPI PUSH1 0x0 DUP1 REVERT JUMPDEST POP DUP1 CALLDATALOAD SWAP1 PUSH1 0x20 ADD CALLDATALOAD PUSH2 0x558 JUMP JUMPDEST CALLVALUE DUP1 ISZERO PUSH2 0x203 JUMPI PUSH1 0x0 DUP1 REVERT JUMPDEST POP PUSH2 0x1C5 PUSH1 0x4 DUP1 CALLDATASIZE SUB PUSH1 0x20 DUP2 LT ISZERO PUSH2 0x21A JUMPI PUSH1 0x0 DUP1 REVERT JUMPDEST POP CALLDATALOAD PUSH2 0x6AE JUMP JUMPDEST CALLVALUE DUP1 ISZERO PUSH2 0x22D JUMPI PUSH1 0x0 DUP1 REVERT JUMPDEST POP PUSH2 0x236 PUSH2 0x81E JUMP JUMPDEST PUSH1 0x40 MLOAD DUP1 DUP1 PUSH1 0x20 ADD DUP1 PUSH1 0x20 ADD DUP4 DUP2 SUB DUP4 MSTORE DUP6 DUP2 DUP2 MLOAD DUP2 MSTORE PUSH1 0x20 ADD SWAP2 POP DUP1 MLOAD SWAP1 PUSH1 0x20 ADD SWAP1 PUSH1 0x20 MUL DUP1 DUP4 DUP4 PUSH1 0x0 JUMPDEST DUP4 DUP2 LT ISZERO PUSH2 0x27A JUMPI DUP2 DUP2 ADD MLOAD DUP4 DUP3 ADD MSTORE PUSH1 0x20 ADD PUSH2 0x262 JUMP JUMPDEST POP POP POP POP SWAP1 POP ADD DUP4 DUP2 SUB DUP3 MSTORE DUP5 DUP2 DUP2 MLOAD DUP2 MSTORE PUSH1 0x20 ADD SWAP2 POP DUP1 MLOAD SWAP1 PUSH1 0x20 ADD SWAP1 PUSH1 0x20 MUL DUP1 DUP4 DUP4 PUSH1 0x0 JUMPDEST DUP4 DUP2 LT ISZERO PUSH2 0x2B9 JUMPI DUP2 DUP2 ADD MLOAD DUP4 DUP3 ADD MSTORE PUSH1 0x20 ADD PUSH2 0x2A1 JUMP JUMPDEST POP POP POP POP SWAP1 POP ADD SWAP5 POP POP POP POP POP PUSH1 0x40 MLOAD DUP1 SWAP2 SUB SWAP1 RETURN JUMPDEST CALLVALUE DUP1 ISZERO PUSH2 0x2DB JUMPI PUSH1 0x0 DUP1 REVERT JUMPDEST POP PUSH2 0x17F PUSH1 0x4 DUP1 CALLDATASIZE SUB PUSH1 0x20 DUP2 LT ISZERO PUSH2 0x2F2 JUMPI PUSH1 0x0 DUP1 REVERT JUMPDEST POP CALLDATALOAD PUSH2 0x990 JUMP JUMPDEST CALLVALUE DUP1 ISZERO PUSH2 0x305 JUMPI PUSH1 0x0 DUP1 REVERT JUMPDEST POP PUSH2 0xDC PUSH2 0x9B7 JUMP JUMPDEST CALLVALUE DUP1 ISZERO PUSH2 0x31A JUMPI PUSH1 0x0 DUP1 REVERT JUMPDEST POP PUSH2 0x1C5 PUSH2 0x9BD JUMP JUMPDEST CALLVALUE DUP1 ISZERO PUSH2 0x32F JUMPI PUSH1 0x0 DUP1 REVERT JUMPDEST POP PUSH2 0x1C5 PUSH2 0xF6B JUMP JUMPDEST PUSH2 0x1C5 PUSH2 0x10EA JUMP JUMPDEST PUSH1 0x6 SLOAD DUP2 JUMP JUMPDEST PUSH1 0x4 SLOAD DUP2 JUMP JUMPDEST PUSH1 0x2 PUSH1 0x20 MSTORE PUSH1 0x0 SWAP1 DUP2 MSTORE PUSH1 0x40 SWAP1 KECCAK256 SLOAD PUSH1 0xFF AND DUP2 JUMP JUMPDEST PUSH1 0x1 PUSH1 0x20 MSTORE PUSH1 0x0 SWAP1 DUP2 MSTORE PUSH1 0x40 SWAP1 KECCAK256 SLOAD PUSH1 0x1 PUSH1 0x1 PUSH1 0xA0 SHL SUB AND DUP2 JUMP JUMPDEST CALLER PUSH1 0x0 SWAP1 DUP2 MSTORE PUSH1 0x2 PUSH1 0x20 MSTORE PUSH1 0x40 SWAP1 KECCAK256 SLOAD PUSH1 0xFF AND PUSH2 0x3DB JUMPI PUSH1 0x40 DUP1 MLOAD PUSH3 0x461BCD PUSH1 0xE5 SHL DUP2 MSTORE PUSH1 0x20 PUSH1 0x4 DUP3 ADD MSTORE PUSH1 0x18 PUSH1 0x24 DUP3 ADD MSTORE PUSH24 0x14195B9CDA5BDB995C88191BD95CC81B9BDD08195E1A5CDD PUSH1 0x42 SHL PUSH1 0x44 DUP3 ADD MSTORE SWAP1 MLOAD SWAP1 DUP2 SWAP1 SUB PUSH1 0x64 ADD SWAP1 REVERT JUMPDEST TIMESTAMP DUP2 LT ISZERO PUSH2 0x430 JUMPI PUSH1 0x40 DUP1 MLOAD PUSH3 0x461BCD PUSH1 0xE5 SHL DUP2 MSTORE PUSH1 0x20 PUSH1 0x4 DUP3 ADD MSTORE PUSH1 0x19 PUSH1 0x24 DUP3 ADD MSTORE PUSH32 0x44617465206D757374206265206120667574757265206F6E6500000000000000 PUSH1 0x44 DUP3 ADD MSTORE SWAP1 MLOAD SWAP1 DUP2 SWAP1 SUB PUSH1 0x64 ADD SWAP1 REVERT JUMPDEST CALLER PUSH1 0x0 SWAP1 DUP2 MSTORE PUSH1 0x1 PUSH1 0x20 SWAP1 DUP2 MSTORE PUSH1 0x40 SWAP2 DUP3 SWAP1 KECCAK256 SLOAD DUP3 MLOAD PUSH4 0xF240313F PUSH1 0xE0 SHL DUP2 MSTORE SWAP3 MLOAD PUSH1 0x1 PUSH1 0x1 PUSH1 0xA0 SHL SUB SWAP1 SWAP2 AND SWAP3 DUP4 SWAP3 PUSH4 0xF240313F SWAP3 PUSH1 0x4 DUP1 DUP5 ADD SWAP4 DUP3 SWAP1 SUB ADD DUP2 DUP7 DUP1 EXTCODESIZE ISZERO DUP1 ISZERO PUSH2 0x480 JUMPI PUSH1 0x0 DUP1 REVERT JUMPDEST POP GAS STATICCALL ISZERO DUP1 ISZERO PUSH2 0x494 JUMPI RETURNDATASIZE PUSH1 0x0 DUP1 RETURNDATACOPY RETURNDATASIZE PUSH1 0x0 REVERT JUMPDEST POP POP POP POP PUSH1 0x40 MLOAD RETURNDATASIZE PUSH1 0x20 DUP2 LT ISZERO PUSH2 0x4AA JUMPI PUSH1 0x0 DUP1 REVERT JUMPDEST POP MLOAD ISZERO PUSH2 0x4E8 JUMPI PUSH1 0x40 MLOAD PUSH3 0x461BCD PUSH1 0xE5 SHL DUP2 MSTORE PUSH1 0x4 ADD DUP1 DUP1 PUSH1 0x20 ADD DUP3 DUP2 SUB DUP3 MSTORE PUSH1 0x2B DUP2 MSTORE PUSH1 0x20 ADD DUP1 PUSH2 0x17E3 PUSH1 0x2B SWAP2 CODECOPY PUSH1 0x40 ADD SWAP2 POP POP PUSH1 0x40 MLOAD DUP1 SWAP2 SUB SWAP1 REVERT JUMPDEST CALLER PUSH1 0x0 SWAP1 DUP2 MSTORE PUSH1 0x1 PUSH1 0x20 MSTORE PUSH1 0x40 DUP1 DUP3 KECCAK256 SLOAD DUP2 MLOAD PUSH4 0x5B93A9B PUSH1 0xE2 SHL DUP2 MSTORE PUSH1 0x4 DUP2 ADD DUP7 SWAP1 MSTORE SWAP2 MLOAD PUSH1 0x1 PUSH1 0x1 PUSH1 0xA0 SHL SUB SWAP1 SWAP2 AND SWAP3 PUSH4 0x16E4EA6C SWAP3 PUSH1 0x24 DUP1 DUP3 ADD SWAP4 SWAP2 DUP3 SWAP1 SUB ADD DUP2 DUP4 DUP8 DUP1 EXTCODESIZE ISZERO DUP1 ISZERO PUSH2 0x53C JUMPI PUSH1 0x0 DUP1 REVERT JUMPDEST POP GAS CALL ISZERO DUP1 ISZERO PUSH2 0x550 JUMPI RETURNDATASIZE PUSH1 0x0 DUP1 RETURNDATACOPY RETURNDATASIZE PUSH1 0x0 REVERT JUMPDEST POP POP POP POP POP POP JUMP JUMPDEST TIMESTAMP DUP3 LT ISZERO PUSH2 0x597 JUMPI PUSH1 0x40 MLOAD PUSH3 0x461BCD PUSH1 0xE5 SHL DUP2 MSTORE PUSH1 0x4 ADD DUP1 DUP1 PUSH1 0x20 ADD DUP3 DUP2 SUB DUP3 MSTORE PUSH1 0x2A DUP2 MSTORE PUSH1 0x20 ADD DUP1 PUSH2 0x180E PUSH1 0x2A SWAP2 CODECOPY PUSH1 0x40 ADD SWAP2 POP POP PUSH1 0x40 MLOAD DUP1 SWAP2 SUB SWAP1 REVERT JUMPDEST CALLER PUSH1 0x0 SWAP1 DUP2 MSTORE PUSH1 0x2 PUSH1 0x20 MSTORE PUSH1 0x40 SWAP1 KECCAK256 SLOAD PUSH1 0xFF AND ISZERO PUSH2 0x5FC JUMPI PUSH1 0x40 DUP1 MLOAD PUSH3 0x461BCD PUSH1 0xE5 SHL DUP2 MSTORE PUSH1 0x20 PUSH1 0x4 DUP3 ADD MSTORE PUSH1 0x18 PUSH1 0x24 DUP3 ADD MSTORE PUSH32 0x50656E73696F6E657220616C7265616479206578697374730000000000000000 PUSH1 0x44 DUP3 ADD MSTORE SWAP1 MLOAD SWAP1 DUP2 SWAP1 SUB PUSH1 0x64 ADD SWAP1 REVERT JUMPDEST PUSH1 0x0 DUP3 DUP3 PUSH1 0x40 MLOAD PUSH2 0x60C SWAP1 PUSH2 0x1454 JUMP JUMPDEST SWAP2 DUP3 MSTORE PUSH1 0x20 DUP3 ADD MSTORE PUSH1 0x40 DUP1 MLOAD SWAP2 DUP3 SWAP1 SUB ADD SWAP1 PUSH1 0x0 CREATE DUP1 ISZERO DUP1 ISZERO PUSH2 0x633 JUMPI RETURNDATASIZE PUSH1 0x0 DUP1 RETURNDATACOPY RETURNDATASIZE PUSH1 0x0 REVERT JUMPDEST POP CALLER PUSH1 0x0 DUP2 DUP2 MSTORE PUSH1 0x1 PUSH1 0x20 DUP2 DUP2 MSTORE PUSH1 0x40 DUP1 DUP5 KECCAK256 DUP1 SLOAD PUSH1 0x1 PUSH1 0x1 PUSH1 0xA0 SHL SUB SWAP1 SWAP8 AND PUSH1 0x1 PUSH1 0x1 PUSH1 0xA0 SHL SUB NOT SWAP8 DUP9 AND OR SWAP1 SSTORE PUSH1 0x2 SWAP1 SWAP2 MSTORE DUP3 KECCAK256 DUP1 SLOAD PUSH1 0xFF NOT AND DUP3 OR SWAP1 SSTORE PUSH1 0x3 DUP1 SLOAD SWAP2 DUP3 ADD DUP2 SSTORE SWAP1 SWAP2 MSTORE PUSH32 0xC2575A0E9E593C00F959F8C92F12DB2869C3395A3B0502D05E2516446F71F85B ADD DUP1 SLOAD SWAP1 SWAP3 AND OR SWAP1 SSTORE POP POP POP JUMP JUMPDEST CALLER PUSH1 0x0 SWAP1 DUP2 MSTORE PUSH1 0x2 PUSH1 0x20 MSTORE PUSH1 0x40 SWAP1 KECCAK256 SLOAD PUSH1 0xFF AND PUSH2 0x70D JUMPI PUSH1 0x40 DUP1 MLOAD PUSH3 0x461BCD PUSH1 0xE5 SHL DUP2 MSTORE PUSH1 0x20 PUSH1 0x4 DUP3 ADD MSTORE PUSH1 0x18 PUSH1 0x24 DUP3 ADD MSTORE PUSH24 0x14195B9CDA5BDB995C88191BD95CC81B9BDD08195E1A5CDD PUSH1 0x42 SHL PUSH1 0x44 DUP3 ADD MSTORE SWAP1 MLOAD SWAP1 DUP2 SWAP1 SUB PUSH1 0x64 ADD SWAP1 REVERT JUMPDEST CALLER PUSH1 0x0 SWAP1 DUP2 MSTORE PUSH1 0x1 PUSH1 0x20 SWAP1 DUP2 MSTORE PUSH1 0x40 SWAP2 DUP3 SWAP1 KECCAK256 SLOAD DUP3 MLOAD PUSH4 0x2305E025 PUSH1 0xE2 SHL DUP2 MSTORE SWAP3 MLOAD PUSH1 0x1 PUSH1 0x1 PUSH1 0xA0 SHL SUB SWAP1 SWAP2 AND SWAP3 TIMESTAMP SWAP3 DUP5 SWAP3 PUSH4 0x8C178094 SWAP3 PUSH1 0x4 DUP1 DUP3 ADD SWAP4 SWAP3 SWAP2 DUP3 SWAP1 SUB ADD DUP2 DUP7 DUP1 EXTCODESIZE ISZERO DUP1 ISZERO PUSH2 0x761 JUMPI PUSH1 0x0 DUP1 REVERT JUMPDEST POP GAS STATICCALL ISZERO DUP1 ISZERO PUSH2 0x775 JUMPI RETURNDATASIZE PUSH1 0x0 DUP1 RETURNDATACOPY RETURNDATASIZE PUSH1 0x0 REVERT JUMPDEST POP POP POP POP PUSH1 0x40 MLOAD RETURNDATASIZE PUSH1 0x20 DUP2 LT ISZERO PUSH2 0x78B JUMPI PUSH1 0x0 DUP1 REVERT JUMPDEST POP MLOAD LT ISZERO PUSH2 0x7CA JUMPI PUSH1 0x40 MLOAD PUSH3 0x461BCD PUSH1 0xE5 SHL DUP2 MSTORE PUSH1 0x4 ADD DUP1 DUP1 PUSH1 0x20 ADD DUP3 DUP2 SUB DUP3 MSTORE PUSH1 0x3F DUP2 MSTORE PUSH1 0x20 ADD DUP1 PUSH2 0x1838 PUSH1 0x3F SWAP2 CODECOPY PUSH1 0x40 ADD SWAP2 POP POP PUSH1 0x40 MLOAD DUP1 SWAP2 SUB SWAP1 REVERT JUMPDEST CALLER PUSH1 0x0 SWAP1 DUP2 MSTORE PUSH1 0x1 PUSH1 0x20 MSTORE PUSH1 0x40 DUP1 DUP3 KECCAK256 SLOAD DUP2 MLOAD PUSH4 0x342F4435 PUSH1 0xE1 SHL DUP2 MSTORE PUSH1 0x4 DUP2 ADD DUP7 SWAP1 MSTORE SWAP2 MLOAD PUSH1 0x1 PUSH1 0x1 PUSH1 0xA0 SHL SUB SWAP1 SWAP2 AND SWAP3 PUSH4 0x685E886A SWAP3 PUSH1 0x24 DUP1 DUP3 ADD SWAP4 SWAP2 DUP3 SWAP1 SUB ADD DUP2 DUP4 DUP8 DUP1 EXTCODESIZE ISZERO DUP1 ISZERO PUSH2 0x53C JUMPI PUSH1 0x0 DUP1 REVERT JUMPDEST PUSH1 0x60 DUP1 PUSH1 0x60 PUSH1 0x3 DUP1 SLOAD SWAP1 POP PUSH8 0xFFFFFFFFFFFFFFFF DUP2 GT DUP1 ISZERO PUSH2 0x83F JUMPI PUSH1 0x0 DUP1 REVERT JUMPDEST POP PUSH1 0x40 MLOAD SWAP1 DUP1 DUP3 MSTORE DUP1 PUSH1 0x20 MUL PUSH1 0x20 ADD DUP3 ADD PUSH1 0x40 MSTORE DUP1 ISZERO PUSH2 0x869 JUMPI DUP2 PUSH1 0x20 ADD PUSH1 0x20 DUP3 MUL DUP1 CALLDATASIZE DUP4 CALLDATACOPY ADD SWAP1 POP JUMPDEST POP PUSH1 0x3 SLOAD SWAP1 SWAP2 POP PUSH1 0x60 SWAP1 PUSH8 0xFFFFFFFFFFFFFFFF DUP2 GT DUP1 ISZERO PUSH2 0x889 JUMPI PUSH1 0x0 DUP1 REVERT JUMPDEST POP PUSH1 0x40 MLOAD SWAP1 DUP1 DUP3 MSTORE DUP1 PUSH1 0x20 MUL PUSH1 0x20 ADD DUP3 ADD PUSH1 0x40 MSTORE DUP1 ISZERO PUSH2 0x8B3 JUMPI DUP2 PUSH1 0x20 ADD PUSH1 0x20 DUP3 MUL DUP1 CALLDATASIZE DUP4 CALLDATACOPY ADD SWAP1 POP JUMPDEST POP SWAP1 POP PUSH1 0x0 JUMPDEST PUSH1 0x3 SLOAD DUP2 LT ISZERO PUSH2 0x986 JUMPI PUSH1 0x3 DUP2 DUP2 SLOAD DUP2 LT PUSH2 0x8D0 JUMPI INVALID JUMPDEST SWAP1 PUSH1 0x0 MSTORE PUSH1 0x20 PUSH1 0x0 KECCAK256 ADD PUSH1 0x0 SWAP1 SLOAD SWAP1 PUSH2 0x100 EXP SWAP1 DIV PUSH1 0x1 PUSH1 0x1 PUSH1 0xA0 SHL SUB AND DUP4 DUP3 DUP2 MLOAD DUP2 LT PUSH2 0x8FA JUMPI INVALID JUMPDEST PUSH1 0x20 MUL PUSH1 0x20 ADD ADD SWAP1 PUSH1 0x1 PUSH1 0x1 PUSH1 0xA0 SHL SUB AND SWAP1 DUP2 PUSH1 0x1 PUSH1 0x1 PUSH1 0xA0 SHL SUB AND DUP2 MSTORE POP POP PUSH1 0x1 PUSH1 0x0 PUSH1 0x3 DUP4 DUP2 SLOAD DUP2 LT PUSH2 0x92B JUMPI INVALID JUMPDEST PUSH1 0x0 SWAP2 DUP3 MSTORE PUSH1 0x20 DUP1 DUP4 KECCAK256 SWAP1 SWAP2 ADD SLOAD PUSH1 0x1 PUSH1 0x1 PUSH1 0xA0 SHL SUB SWAP1 DUP2 AND DUP5 MSTORE SWAP1 DUP4 ADD SWAP4 SWAP1 SWAP4 MSTORE PUSH1 0x40 SWAP1 SWAP2 ADD SWAP1 KECCAK256 SLOAD DUP4 MLOAD SWAP2 AND SWAP1 DUP4 SWAP1 DUP4 SWAP1 DUP2 LT PUSH2 0x966 JUMPI INVALID JUMPDEST PUSH1 0x1 PUSH1 0x1 PUSH1 0xA0 SHL SUB SWAP1 SWAP3 AND PUSH1 0x20 SWAP3 DUP4 MUL SWAP2 SWAP1 SWAP2 ADD SWAP1 SWAP2 ADD MSTORE PUSH1 0x1 ADD PUSH2 0x8B9 JUMP JUMPDEST POP SWAP1 SWAP3 POP SWAP1 POP SWAP1 SWAP2 JUMP JUMPDEST PUSH1 0x3 DUP2 DUP2 SLOAD DUP2 LT PUSH2 0x99D JUMPI INVALID JUMPDEST PUSH1 0x0 SWAP2 DUP3 MSTORE PUSH1 0x20 SWAP1 SWAP2 KECCAK256 ADD SLOAD PUSH1 0x1 PUSH1 0x1 PUSH1 0xA0 SHL SUB AND SWAP1 POP DUP2 JUMP JUMPDEST PUSH1 0x5 SLOAD DUP2 JUMP JUMPDEST PUSH1 0x2 PUSH1 0x0 SLOAD EQ ISZERO PUSH2 0xA15 JUMPI PUSH1 0x40 DUP1 MLOAD PUSH3 0x461BCD PUSH1 0xE5 SHL DUP2 MSTORE PUSH1 0x20 PUSH1 0x4 DUP3 ADD MSTORE PUSH1 0x1F PUSH1 0x24 DUP3 ADD MSTORE PUSH32 0x5265656E7472616E637947756172643A207265656E7472616E742063616C6C00 PUSH1 0x44 DUP3 ADD MSTORE SWAP1 MLOAD SWAP1 DUP2 SWAP1 SUB PUSH1 0x64 ADD SWAP1 REVERT JUMPDEST PUSH1 0x2 PUSH1 0x0 SSTORE PUSH1 0x6 SLOAD PUSH1 0x5 SLOAD TIMESTAMP SWAP2 ADD GT ISZERO PUSH2 0xA2E JUMPI PUSH2 0xF64 JUMP JUMPDEST TIMESTAMP PUSH1 0x5 SSTORE PUSH1 0x0 DUP1 PUSH2 0xA3D PUSH2 0x1247 JUMP JUMPDEST SWAP1 POP PUSH1 0x0 JUMPDEST PUSH1 0x3 SLOAD DUP2 LT ISZERO PUSH2 0xC3C JUMPI PUSH1 0x0 PUSH1 0x3 DUP3 DUP2 SLOAD DUP2 LT PUSH2 0xA5B JUMPI INVALID JUMPDEST PUSH1 0x0 SWAP2 DUP3 MSTORE PUSH1 0x20 DUP1 DUP4 KECCAK256 SWAP1 SWAP2 ADD SLOAD PUSH1 0x1 PUSH1 0x1 PUSH1 0xA0 SHL SUB SWAP1 DUP2 AND DUP1 DUP5 MSTORE PUSH1 0x1 DUP4 MSTORE PUSH1 0x40 SWAP4 DUP5 SWAP1 KECCAK256 SLOAD DUP5 MLOAD PUSH4 0xF240313F PUSH1 0xE0 SHL DUP2 MSTORE SWAP5 MLOAD SWAP2 SWAP6 POP SWAP1 SWAP2 AND SWAP3 DUP4 SWAP3 PUSH4 0xF240313F SWAP3 PUSH1 0x4 DUP1 DUP5 ADD SWAP4 DUP3 SWAP1 SUB ADD DUP2 DUP7 DUP1 EXTCODESIZE ISZERO DUP1 ISZERO PUSH2 0xAB9 JUMPI PUSH1 0x0 DUP1 REVERT JUMPDEST POP GAS STATICCALL ISZERO DUP1 ISZERO PUSH2 0xACD JUMPI RETURNDATASIZE PUSH1 0x0 DUP1 RETURNDATACOPY RETURNDATASIZE PUSH1 0x0 REVERT JUMPDEST POP POP POP POP PUSH1 0x40 MLOAD RETURNDATASIZE PUSH1 0x20 DUP2 LT ISZERO PUSH2 0xAE3 JUMPI PUSH1 0x0 DUP1 REVERT JUMPDEST POP MLOAD DUP1 ISZERO PUSH2 0xB52 JUMPI POP DUP1 PUSH1 0x1 PUSH1 0x1 PUSH1 0xA0 SHL SUB AND PUSH4 0x5B57A1E5 PUSH1 0x40 MLOAD DUP2 PUSH4 0xFFFFFFFF AND PUSH1 0xE0 SHL DUP2 MSTORE PUSH1 0x4 ADD PUSH1 0x20 PUSH1 0x40 MLOAD DUP1 DUP4 SUB DUP2 DUP7 DUP1 EXTCODESIZE ISZERO DUP1 ISZERO PUSH2 0xB25 JUMPI PUSH1 0x0 DUP1 REVERT JUMPDEST POP GAS STATICCALL ISZERO DUP1 ISZERO PUSH2 0xB39 JUMPI RETURNDATASIZE PUSH1 0x0 DUP1 RETURNDATACOPY RETURNDATASIZE PUSH1 0x0 REVERT JUMPDEST POP POP POP POP PUSH1 0x40 MLOAD RETURNDATASIZE PUSH1 0x20 DUP2 LT ISZERO PUSH2 0xB4F JUMPI PUSH1 0x0 DUP1 REVERT JUMPDEST POP MLOAD JUMPDEST DUP1 ISZERO PUSH2 0xBC2 JUMPI POP PUSH1 0x0 DUP2 PUSH1 0x1 PUSH1 0x1 PUSH1 0xA0 SHL SUB AND PUSH4 0x44C4DC31 PUSH1 0x40 MLOAD DUP2 PUSH4 0xFFFFFFFF AND PUSH1 0xE0 SHL DUP2 MSTORE PUSH1 0x4 ADD PUSH1 0x20 PUSH1 0x40 MLOAD DUP1 DUP4 SUB DUP2 DUP7 DUP1 EXTCODESIZE ISZERO DUP1 ISZERO PUSH2 0xB94 JUMPI PUSH1 0x0 DUP1 REVERT JUMPDEST POP GAS STATICCALL ISZERO DUP1 ISZERO PUSH2 0xBA8 JUMPI RETURNDATASIZE PUSH1 0x0 DUP1 RETURNDATACOPY RETURNDATASIZE PUSH1 0x0 REVERT JUMPDEST POP POP POP POP PUSH1 0x40 MLOAD RETURNDATASIZE PUSH1 0x20 DUP2 LT ISZERO PUSH2 0xBBE JUMPI PUSH1 0x0 DUP1 REVERT JUMPDEST POP MLOAD GT JUMPDEST ISZERO PUSH2 0xC32 JUMPI DUP1 PUSH1 0x1 PUSH1 0x1 PUSH1 0xA0 SHL SUB AND PUSH4 0xD26E7B4D PUSH1 0x40 MLOAD DUP2 PUSH4 0xFFFFFFFF AND PUSH1 0xE0 SHL DUP2 MSTORE PUSH1 0x4 ADD PUSH1 0x20 PUSH1 0x40 MLOAD DUP1 DUP4 SUB DUP2 DUP7 DUP1 EXTCODESIZE ISZERO DUP1 ISZERO PUSH2 0xC00 JUMPI PUSH1 0x0 DUP1 REVERT JUMPDEST POP GAS STATICCALL ISZERO DUP1 ISZERO PUSH2 0xC14 JUMPI RETURNDATASIZE PUSH1 0x0 DUP1 RETURNDATACOPY RETURNDATASIZE PUSH1 0x0 REVERT JUMPDEST POP POP POP POP PUSH1 0x40 MLOAD RETURNDATASIZE PUSH1 0x20 DUP2 LT ISZERO PUSH2 0xC2A JUMPI PUSH1 0x0 DUP1 REVERT JUMPDEST POP MLOAD SWAP5 SWAP1 SWAP5 ADD SWAP4 JUMPDEST POP POP PUSH1 0x1 ADD PUSH2 0xA42 JUMP JUMPDEST POP PUSH1 0x0 DUP1 JUMPDEST PUSH1 0x3 SLOAD DUP2 LT ISZERO PUSH2 0xEC0 JUMPI PUSH1 0x0 PUSH1 0x3 DUP3 DUP2 SLOAD DUP2 LT PUSH2 0xC5A JUMPI INVALID JUMPDEST PUSH1 0x0 SWAP2 DUP3 MSTORE PUSH1 0x20 DUP1 DUP4 KECCAK256 SWAP1 SWAP2 ADD SLOAD PUSH1 0x1 PUSH1 0x1 PUSH1 0xA0 SHL SUB SWAP1 DUP2 AND DUP1 DUP5 MSTORE PUSH1 0x1 DUP4 MSTORE PUSH1 0x40 SWAP4 DUP5 SWAP1 KECCAK256 SLOAD DUP5 MLOAD PUSH4 0xF240313F PUSH1 0xE0 SHL DUP2 MSTORE SWAP5 MLOAD SWAP2 SWAP6 POP SWAP1 SWAP2 AND SWAP3 DUP4 SWAP3 PUSH4 0xF240313F SWAP3 PUSH1 0x4 DUP1 DUP5 ADD SWAP4 DUP3 SWAP1 SUB ADD DUP2 DUP7 DUP1 EXTCODESIZE ISZERO DUP1 ISZERO PUSH2 0xCB8 JUMPI PUSH1 0x0 DUP1 REVERT JUMPDEST POP GAS STATICCALL ISZERO DUP1 ISZERO PUSH2 0xCCC JUMPI RETURNDATASIZE PUSH1 0x0 DUP1 RETURNDATACOPY RETURNDATASIZE PUSH1 0x0 REVERT JUMPDEST POP POP POP POP PUSH1 0x40 MLOAD RETURNDATASIZE PUSH1 0x20 DUP2 LT ISZERO PUSH2 0xCE2 JUMPI PUSH1 0x0 DUP1 REVERT JUMPDEST POP MLOAD DUP1 ISZERO PUSH2 0xD51 JUMPI POP DUP1 PUSH1 0x1 PUSH1 0x1 PUSH1 0xA0 SHL SUB AND PUSH4 0x5B57A1E5 PUSH1 0x40 MLOAD DUP2 PUSH4 0xFFFFFFFF AND PUSH1 0xE0 SHL DUP2 MSTORE PUSH1 0x4 ADD PUSH1 0x20 PUSH1 0x40 MLOAD DUP1 DUP4 SUB DUP2 DUP7 DUP1 EXTCODESIZE ISZERO DUP1 ISZERO PUSH2 0xD24 JUMPI PUSH1 0x0 DUP1 REVERT JUMPDEST POP GAS STATICCALL ISZERO DUP1 ISZERO PUSH2 0xD38 JUMPI RETURNDATASIZE PUSH1 0x0 DUP1 RETURNDATACOPY RETURNDATASIZE PUSH1 0x0 REVERT JUMPDEST POP POP POP POP PUSH1 0x40 MLOAD RETURNDATASIZE PUSH1 0x20 DUP2 LT ISZERO PUSH2 0xD4E JUMPI PUSH1 0x0 DUP1 REVERT JUMPDEST POP MLOAD JUMPDEST DUP1 ISZERO PUSH2 0xDC1 JUMPI POP PUSH1 0x0 DUP2 PUSH1 0x1 PUSH1 0x1 PUSH1 0xA0 SHL SUB AND PUSH4 0x44C4DC31 PUSH1 0x40 MLOAD DUP2 PUSH4 0xFFFFFFFF AND PUSH1 0xE0 SHL DUP2 MSTORE PUSH1 0x4 ADD PUSH1 0x20 PUSH1 0x40 MLOAD DUP1 DUP4 SUB DUP2 DUP7 DUP1 EXTCODESIZE ISZERO DUP1 ISZERO PUSH2 0xD93 JUMPI PUSH1 0x0 DUP1 REVERT JUMPDEST POP GAS STATICCALL ISZERO DUP1 ISZERO PUSH2 0xDA7 JUMPI RETURNDATASIZE PUSH1 0x0 DUP1 RETURNDATACOPY RETURNDATASIZE PUSH1 0x0 REVERT JUMPDEST POP POP POP POP PUSH1 0x40 MLOAD RETURNDATASIZE PUSH1 0x20 DUP2 LT ISZERO PUSH2 0xDBD JUMPI PUSH1 0x0 DUP1 REVERT JUMPDEST POP MLOAD GT JUMPDEST ISZERO PUSH2 0xEB6 JUMPI PUSH1 0x3 SLOAD PUSH1 0x0 SWAP1 PUSH1 0x0 NOT ADD DUP5 EQ ISZERO PUSH2 0xDE0 JUMPI POP DUP4 DUP6 SUB PUSH2 0xE5D JUMP JUMPDEST PUSH1 0x0 DUP3 PUSH1 0x1 PUSH1 0x1 PUSH1 0xA0 SHL SUB AND PUSH4 0xD26E7B4D PUSH1 0x40 MLOAD DUP2 PUSH4 0xFFFFFFFF AND PUSH1 0xE0 SHL DUP2 MSTORE PUSH1 0x4 ADD PUSH1 0x20 PUSH1 0x40 MLOAD DUP1 DUP4 SUB DUP2 DUP7 DUP1 EXTCODESIZE ISZERO DUP1 ISZERO PUSH2 0xE1B JUMPI PUSH1 0x0 DUP1 REVERT JUMPDEST POP GAS STATICCALL ISZERO DUP1 ISZERO PUSH2 0xE2F JUMPI RETURNDATASIZE PUSH1 0x0 DUP1 RETURNDATACOPY RETURNDATASIZE PUSH1 0x0 REVERT JUMPDEST POP POP POP POP PUSH1 0x40 MLOAD RETURNDATASIZE PUSH1 0x20 DUP2 LT ISZERO PUSH2 0xE45 JUMPI PUSH1 0x0 DUP1 REVERT JUMPDEST POP MLOAD SWAP1 POP DUP8 DUP8 DUP3 MUL DUP2 PUSH2 0xE54 JUMPI INVALID JUMPDEST DIV SWAP6 DUP7 ADD SWAP6 SWAP2 POP POP JUMPDEST PUSH1 0x8 DUP1 SLOAD PUSH1 0x1 DUP2 ADD SWAP1 SWAP2 SSTORE PUSH32 0xF3F7A9FE364FAAB93B216DA50A3214154F22A0A2B415B23A84C8169E8B636EE3 ADD DUP1 SLOAD PUSH1 0x1 PUSH1 0x1 PUSH1 0xA0 SHL SUB NOT AND PUSH1 0x1 PUSH1 0x1 PUSH1 0xA0 SHL SUB DUP6 AND SWAP1 DUP2 OR SWAP1 SWAP2 SSTORE PUSH1 0x0 SWAP1 DUP2 MSTORE PUSH1 0x7 PUSH1 0x20 MSTORE PUSH1 0x40 SWAP1 KECCAK256 SSTORE JUMPDEST POP POP PUSH1 0x1 ADD PUSH2 0xC41 JUMP JUMPDEST POP PUSH1 0x0 JUMPDEST PUSH1 0x8 SLOAD DUP2 LT ISZERO PUSH2 0xF53 JUMPI PUSH1 0x0 PUSH1 0x8 DUP3 DUP2 SLOAD DUP2 LT PUSH2 0xEDD JUMPI INVALID JUMPDEST PUSH1 0x0 SWAP2 DUP3 MSTORE PUSH1 0x20 DUP1 DUP4 KECCAK256 SWAP1 SWAP2 ADD SLOAD PUSH1 0x1 PUSH1 0x1 PUSH1 0xA0 SHL SUB AND DUP1 DUP4 MSTORE PUSH1 0x7 SWAP1 SWAP2 MSTORE PUSH1 0x40 DUP1 DUP4 KECCAK256 SLOAD SWAP1 MLOAD SWAP2 SWAP4 POP SWAP2 DUP4 SWAP2 DUP4 ISZERO PUSH2 0x8FC MUL SWAP2 DUP5 SWAP2 SWAP1 DUP2 DUP2 DUP2 DUP6 DUP9 DUP9 CALL SWAP4 POP POP POP POP ISZERO DUP1 ISZERO PUSH2 0xF31 JUMPI RETURNDATASIZE PUSH1 0x0 DUP1 RETURNDATACOPY RETURNDATASIZE PUSH1 0x0 REVERT JUMPDEST POP POP PUSH1 0x1 PUSH1 0x1 PUSH1 0xA0 SHL SUB AND PUSH1 0x0 SWAP1 DUP2 MSTORE PUSH1 0x7 PUSH1 0x20 MSTORE PUSH1 0x40 DUP2 KECCAK256 SSTORE PUSH1 0x1 ADD PUSH2 0xEC4 JUMP JUMPDEST POP PUSH2 0xF60 PUSH1 0x8 PUSH1 0x0 PUSH2 0x1461 JUMP JUMPDEST POP POP POP JUMPDEST PUSH1 0x1 PUSH1 0x0 SSTORE JUMP JUMPDEST CALLER PUSH1 0x0 SWAP1 DUP2 MSTORE PUSH1 0x2 PUSH1 0x20 MSTORE PUSH1 0x40 SWAP1 KECCAK256 SLOAD PUSH1 0xFF AND PUSH2 0xFCA JUMPI PUSH1 0x40 DUP1 MLOAD PUSH3 0x461BCD PUSH1 0xE5 SHL DUP2 MSTORE PUSH1 0x20 PUSH1 0x4 DUP3 ADD MSTORE PUSH1 0x18 PUSH1 0x24 DUP3 ADD MSTORE PUSH24 0x14195B9CDA5BDB995C88191BD95CC81B9BDD08195E1A5CDD PUSH1 0x42 SHL PUSH1 0x44 DUP3 ADD MSTORE SWAP1 MLOAD SWAP1 DUP2 SWAP1 SUB PUSH1 0x64 ADD SWAP1 REVERT JUMPDEST CALLER PUSH1 0x0 SWAP1 DUP2 MSTORE PUSH1 0x1 PUSH1 0x20 SWAP1 DUP2 MSTORE PUSH1 0x40 SWAP2 DUP3 SWAP1 KECCAK256 SLOAD DUP3 MLOAD PUSH4 0xF240313F PUSH1 0xE0 SHL DUP2 MSTORE SWAP3 MLOAD PUSH1 0x1 PUSH1 0x1 PUSH1 0xA0 SHL SUB SWAP1 SWAP2 AND SWAP3 DUP4 SWAP3 PUSH4 0xF240313F SWAP3 PUSH1 0x4 DUP1 DUP5 ADD SWAP4 DUP3 SWAP1 SUB ADD DUP2 DUP7 DUP1 EXTCODESIZE ISZERO DUP1 ISZERO PUSH2 0x101A JUMPI PUSH1 0x0 DUP1 REVERT JUMPDEST POP GAS STATICCALL ISZERO DUP1 ISZERO PUSH2 0x102E JUMPI RETURNDATASIZE PUSH1 0x0 DUP1 RETURNDATACOPY RETURNDATASIZE PUSH1 0x0 REVERT JUMPDEST POP POP POP POP PUSH1 0x40 MLOAD RETURNDATASIZE PUSH1 0x20 DUP2 LT ISZERO PUSH2 0x1044 JUMPI PUSH1 0x0 DUP1 REVERT JUMPDEST POP MLOAD ISZERO PUSH2 0x1082 JUMPI PUSH1 0x40 MLOAD PUSH3 0x461BCD PUSH1 0xE5 SHL DUP2 MSTORE PUSH1 0x4 ADD DUP1 DUP1 PUSH1 0x20 ADD DUP3 DUP2 SUB DUP3 MSTORE PUSH1 0x2B DUP2 MSTORE PUSH1 0x20 ADD DUP1 PUSH2 0x17E3 PUSH1 0x2B SWAP2 CODECOPY PUSH1 0x40 ADD SWAP2 POP POP PUSH1 0x40 MLOAD DUP1 SWAP2 SUB SWAP1 REVERT JUMPDEST CALLER PUSH1 0x0 SWAP1 DUP2 MSTORE PUSH1 0x1 PUSH1 0x20 MSTORE PUSH1 0x40 DUP1 DUP3 KECCAK256 SLOAD DUP2 MLOAD PUSH4 0x6C1FE8DB PUSH1 0xE0 SHL DUP2 MSTORE SWAP2 MLOAD PUSH1 0x1 PUSH1 0x1 PUSH1 0xA0 SHL SUB SWAP1 SWAP2 AND SWAP3 PUSH4 0x6C1FE8DB SWAP3 PUSH1 0x4 DUP1 DUP3 ADD SWAP4 SWAP2 DUP3 SWAP1 SUB ADD DUP2 DUP4 DUP8 DUP1 EXTCODESIZE ISZERO DUP1 ISZERO PUSH2 0x10CF JUMPI PUSH1 0x0 DUP1 REVERT JUMPDEST POP GAS CALL ISZERO DUP1 ISZERO PUSH2 0x10E3 JUMPI RETURNDATASIZE PUSH1 0x0 DUP1 RETURNDATACOPY RETURNDATASIZE PUSH1 0x0 REVERT JUMPDEST POP POP POP POP POP JUMP JUMPDEST CALLER PUSH1 0x0 SWAP1 DUP2 MSTORE PUSH1 0x2 PUSH1 0x20 MSTORE PUSH1 0x40 SWAP1 KECCAK256 SLOAD PUSH1 0xFF AND PUSH2 0x1149 JUMPI PUSH1 0x40 DUP1 MLOAD PUSH3 0x461BCD PUSH1 0xE5 SHL DUP2 MSTORE PUSH1 0x20 PUSH1 0x4 DUP3 ADD MSTORE PUSH1 0x18 PUSH1 0x24 DUP3 ADD MSTORE PUSH24 0x14195B9CDA5BDB995C88191BD95CC81B9BDD08195E1A5CDD PUSH1 0x42 SHL PUSH1 0x44 DUP3 ADD MSTORE SWAP1 MLOAD SWAP1 DUP2 SWAP1 SUB PUSH1 0x64 ADD SWAP1 REVERT JUMPDEST CALLER PUSH1 0x0 SWAP1 DUP2 MSTORE PUSH1 0x1 PUSH1 0x20 SWAP1 DUP2 MSTORE PUSH1 0x40 SWAP2 DUP3 SWAP1 KECCAK256 SLOAD DUP3 MLOAD PUSH4 0xF240313F PUSH1 0xE0 SHL DUP2 MSTORE SWAP3 MLOAD PUSH1 0x1 PUSH1 0x1 PUSH1 0xA0 SHL SUB SWAP1 SWAP2 AND SWAP3 DUP4 SWAP3 PUSH4 0xF240313F SWAP3 PUSH1 0x4 DUP1 DUP5 ADD SWAP4 DUP3 SWAP1 SUB ADD DUP2 DUP7 DUP1 EXTCODESIZE ISZERO DUP1 ISZERO PUSH2 0x1199 JUMPI PUSH1 0x0 DUP1 REVERT JUMPDEST POP GAS STATICCALL ISZERO DUP1 ISZERO PUSH2 0x11AD JUMPI RETURNDATASIZE PUSH1 0x0 DUP1 RETURNDATACOPY RETURNDATASIZE PUSH1 0x0 REVERT JUMPDEST POP POP POP POP PUSH1 0x40 MLOAD RETURNDATASIZE PUSH1 0x20 DUP2 LT ISZERO PUSH2 0x11C3 JUMPI PUSH1 0x0 DUP1 REVERT JUMPDEST POP MLOAD ISZERO PUSH2 0x1201 JUMPI PUSH1 0x40 MLOAD PUSH3 0x461BCD PUSH1 0xE5 SHL DUP2 MSTORE PUSH1 0x4 ADD DUP1 DUP1 PUSH1 0x20 ADD DUP3 DUP2 SUB DUP3 MSTORE PUSH1 0x26 DUP2 MSTORE PUSH1 0x20 ADD DUP1 PUSH2 0x1877 PUSH1 0x26 SWAP2 CODECOPY PUSH1 0x40 ADD SWAP2 POP POP PUSH1 0x40 MLOAD DUP1 SWAP2 SUB SWAP1 REVERT JUMPDEST DUP1 PUSH1 0x1 PUSH1 0x1 PUSH1 0xA0 SHL SUB AND PUSH4 0x30D2C0D3 CALLVALUE PUSH1 0x40 MLOAD DUP3 PUSH4 0xFFFFFFFF AND PUSH1 0xE0 SHL DUP2 MSTORE PUSH1 0x4 ADD DUP1 DUP3 DUP2 MSTORE PUSH1 0x20 ADD SWAP2 POP POP PUSH1 0x0 PUSH1 0x40 MLOAD DUP1 DUP4 SUB DUP2 PUSH1 0x0 DUP8 DUP1 EXTCODESIZE ISZERO DUP1 ISZERO PUSH2 0x10CF JUMPI PUSH1 0x0 DUP1 REVERT JUMPDEST PUSH1 0x0 DUP1 DUP1 DUP1 SELFBALANCE DUP2 JUMPDEST PUSH1 0x3 SLOAD DUP2 LT ISZERO PUSH2 0x13EB JUMPI PUSH1 0x0 PUSH1 0x3 DUP3 DUP2 SLOAD DUP2 LT PUSH2 0x1268 JUMPI INVALID JUMPDEST PUSH1 0x0 SWAP2 DUP3 MSTORE PUSH1 0x20 DUP1 DUP4 KECCAK256 SWAP1 SWAP2 ADD SLOAD PUSH1 0x1 PUSH1 0x1 PUSH1 0xA0 SHL SUB SWAP1 DUP2 AND DUP1 DUP5 MSTORE PUSH1 0x1 DUP4 MSTORE PUSH1 0x40 SWAP4 DUP5 SWAP1 KECCAK256 SLOAD DUP5 MLOAD PUSH4 0xF240313F PUSH1 0xE0 SHL DUP2 MSTORE SWAP5 MLOAD SWAP2 SWAP6 POP SWAP1 SWAP2 AND SWAP3 DUP4 SWAP3 PUSH4 0xF240313F SWAP3 PUSH1 0x4 DUP1 DUP5 ADD SWAP4 DUP3 SWAP1 SUB ADD DUP2 DUP7 DUP1 EXTCODESIZE ISZERO DUP1 ISZERO PUSH2 0x12C6 JUMPI PUSH1 0x0 DUP1 REVERT JUMPDEST POP GAS STATICCALL ISZERO DUP1 ISZERO PUSH2 0x12DA JUMPI RETURNDATASIZE PUSH1 0x0 DUP1 RETURNDATACOPY RETURNDATASIZE PUSH1 0x0 REVERT JUMPDEST POP POP POP POP PUSH1 0x40 MLOAD RETURNDATASIZE PUSH1 0x20 DUP2 LT ISZERO PUSH2 0x12F0 JUMPI PUSH1 0x0 DUP1 REVERT JUMPDEST POP MLOAD ISZERO PUSH2 0x136D JUMPI DUP1 PUSH1 0x1 PUSH1 0x1 PUSH1 0xA0 SHL SUB AND PUSH4 0x5B57A1E5 PUSH1 0x40 MLOAD DUP2 PUSH4 0xFFFFFFFF AND PUSH1 0xE0 SHL DUP2 MSTORE PUSH1 0x4 ADD PUSH1 0x20 PUSH1 0x40 MLOAD DUP1 DUP4 SUB DUP2 DUP7 DUP1 EXTCODESIZE ISZERO DUP1 ISZERO PUSH2 0x1330 JUMPI PUSH1 0x0 DUP1 REVERT JUMPDEST POP GAS STATICCALL ISZERO DUP1 ISZERO PUSH2 0x1344 JUMPI RETURNDATASIZE PUSH1 0x0 DUP1 RETURNDATACOPY RETURNDATASIZE PUSH1 0x0 REVERT JUMPDEST POP POP POP POP PUSH1 0x40 MLOAD RETURNDATASIZE PUSH1 0x20 DUP2 LT ISZERO PUSH2 0x135A JUMPI PUSH1 0x0 DUP1 REVERT JUMPDEST POP MLOAD ISZERO PUSH2 0x1368 JUMPI PUSH1 0x1 SWAP1 SWAP5 ADD SWAP4 JUMPDEST PUSH2 0x13E1 JUMP JUMPDEST PUSH1 0x0 DUP2 PUSH1 0x1 PUSH1 0x1 PUSH1 0xA0 SHL SUB AND PUSH4 0x44C4DC31 PUSH1 0x40 MLOAD DUP2 PUSH4 0xFFFFFFFF AND PUSH1 0xE0 SHL DUP2 MSTORE PUSH1 0x4 ADD PUSH1 0x20 PUSH1 0x40 MLOAD DUP1 DUP4 SUB DUP2 DUP7 DUP1 EXTCODESIZE ISZERO DUP1 ISZERO PUSH2 0x13A8 JUMPI PUSH1 0x0 DUP1 REVERT JUMPDEST POP GAS STATICCALL ISZERO DUP1 ISZERO PUSH2 0x13BC JUMPI RETURNDATASIZE PUSH1 0x0 DUP1 RETURNDATACOPY RETURNDATASIZE PUSH1 0x0 REVERT JUMPDEST POP POP POP POP PUSH1 0x40 MLOAD RETURNDATASIZE PUSH1 0x20 DUP2 LT ISZERO PUSH2 0x13D2 JUMPI PUSH1 0x0 DUP1 REVERT JUMPDEST POP MLOAD GT ISZERO PUSH2 0x13E1 JUMPI PUSH1 0x1 SWAP1 SWAP6 ADD SWAP5 JUMPDEST POP POP PUSH1 0x1 ADD PUSH2 0x124F JUMP JUMPDEST POP DUP2 PUSH2 0x13FE JUMPI PUSH1 0x0 SWAP5 POP POP POP POP POP PUSH2 0x1451 JUMP JUMPDEST DUP3 PUSH2 0x1416 JUMPI PUSH1 0x64 PUSH1 0x14 DUP3 MUL JUMPDEST DIV SWAP5 POP POP POP POP POP PUSH2 0x1451 JUMP JUMPDEST DUP2 DUP4 GT ISZERO PUSH2 0x1429 JUMPI PUSH1 0x64 PUSH1 0x5A DUP3 MUL PUSH2 0x140A JUMP JUMPDEST DUP2 DUP4 PUSH1 0x64 MUL DUP2 PUSH2 0x1435 JUMPI INVALID JUMPDEST DIV SWAP4 POP PUSH1 0x64 DUP5 DUP2 PUSH1 0x5A DUP5 MUL DIV MUL DUP2 PUSH2 0x1449 JUMPI INVALID JUMPDEST DIV SWAP5 POP POP POP POP POP JUMPDEST SWAP1 JUMP JUMPDEST PUSH2 0x347 DUP1 PUSH2 0x149C DUP4 CODECOPY ADD SWAP1 JUMP JUMPDEST POP DUP1 SLOAD PUSH1 0x0 DUP3 SSTORE SWAP1 PUSH1 0x0 MSTORE PUSH1 0x20 PUSH1 0x0 KECCAK256 SWAP1 DUP2 ADD SWAP1 PUSH2 0x147F SWAP2 SWAP1 PUSH2 0x1482 JUMP JUMPDEST POP JUMP JUMPDEST JUMPDEST DUP1 DUP3 GT ISZERO PUSH2 0x1497 JUMPI PUSH1 0x0 DUP2 SSTORE PUSH1 0x1 ADD PUSH2 0x1483 JUMP JUMPDEST POP SWAP1 JUMP INVALID PUSH1 0x80 PUSH1 0x40 MSTORE CALLVALUE DUP1 ISZERO PUSH2 0x10 JUMPI PUSH1 0x0 DUP1 REVERT JUMPDEST POP PUSH1 0x40 MLOAD PUSH2 0x347 CODESIZE SUB DUP1 PUSH2 0x347 DUP4 CODECOPY DUP2 DUP2 ADD PUSH1 0x40 MSTORE PUSH1 0x40 DUP2 LT ISZERO PUSH2 0x33 JUMPI PUSH1 0x0 DUP1 REVERT JUMPDEST POP DUP1 MLOAD PUSH1 0x20 SWAP1 SWAP2 ADD MLOAD PUSH1 0x0 DUP1 SSTORE TIMESTAMP PUSH1 0x1 SSTORE PUSH1 0x2 SWAP2 SWAP1 SWAP2 SSTORE PUSH1 0x3 SSTORE PUSH2 0x2EB DUP1 PUSH2 0x5C PUSH1 0x0 CODECOPY PUSH1 0x0 RETURN INVALID PUSH1 0x80 PUSH1 0x40 MSTORE CALLVALUE DUP1 ISZERO PUSH2 0x10 JUMPI PUSH1 0x0 DUP1 REVERT JUMPDEST POP PUSH1 0x4 CALLDATASIZE LT PUSH2 0xB4 JUMPI PUSH1 0x0 CALLDATALOAD PUSH1 0xE0 SHR DUP1 PUSH4 0x6C1FE8DB GT PUSH2 0x71 JUMPI DUP1 PUSH4 0x6C1FE8DB EQ PUSH2 0x150 JUMPI DUP1 PUSH4 0x8C178094 EQ PUSH2 0x158 JUMPI DUP1 PUSH4 0x9E0C7930 EQ PUSH2 0x160 JUMPI DUP1 PUSH4 0xD26E7B4D EQ PUSH2 0x168 JUMPI DUP1 PUSH4 0xE29796BF EQ PUSH2 0x170 JUMPI DUP1 PUSH4 0xF240313F EQ PUSH2 0x178 JUMPI PUSH2 0xB4 JUMP JUMPDEST DUP1 PUSH4 0xB34A165 EQ PUSH2 0xB9 JUMPI DUP1 PUSH4 0x16E4EA6C EQ PUSH2 0xD3 JUMPI DUP1 PUSH4 0x30D2C0D3 EQ PUSH2 0xF2 JUMPI DUP1 PUSH4 0x44C4DC31 EQ PUSH2 0x10F JUMPI DUP1 PUSH4 0x5B57A1E5 EQ PUSH2 0x117 JUMPI DUP1 PUSH4 0x685E886A EQ PUSH2 0x133 JUMPI JUMPDEST PUSH1 0x0 DUP1 REVERT JUMPDEST PUSH2 0xC1 PUSH2 0x180 JUMP JUMPDEST PUSH1 0x40 DUP1 MLOAD SWAP2 DUP3 MSTORE MLOAD SWAP1 DUP2 SWAP1 SUB PUSH1 0x20 ADD SWAP1 RETURN JUMPDEST PUSH2 0xF0 PUSH1 0x4 DUP1 CALLDATASIZE SUB PUSH1 0x20 DUP2 LT ISZERO PUSH2 0xE9 JUMPI PUSH1 0x0 DUP1 REVERT JUMPDEST POP CALLDATALOAD PUSH2 0x186 JUMP JUMPDEST STOP JUMPDEST PUSH2 0xF0 PUSH1 0x4 DUP1 CALLDATASIZE SUB PUSH1 0x20 DUP2 LT ISZERO PUSH2 0x108 JUMPI PUSH1 0x0 DUP1 REVERT JUMPDEST POP CALLDATALOAD PUSH2 0x1E4 JUMP JUMPDEST PUSH2 0xC1 PUSH2 0x233 JUMP JUMPDEST PUSH2 0x11F PUSH2 0x239 JUMP JUMPDEST PUSH1 0x40 DUP1 MLOAD SWAP2 ISZERO ISZERO DUP3 MSTORE MLOAD SWAP1 DUP2 SWAP1 SUB PUSH1 0x20 ADD SWAP1 RETURN JUMPDEST PUSH2 0xF0 PUSH1 0x4 DUP1 CALLDATASIZE SUB PUSH1 0x20 DUP2 LT ISZERO PUSH2 0x149 JUMPI PUSH1 0x0 DUP1 REVERT JUMPDEST POP CALLDATALOAD PUSH2 0x24B JUMP JUMPDEST PUSH2 0xF0 PUSH2 0x250 JUMP JUMPDEST PUSH2 0xC1 PUSH2 0x25B JUMP JUMPDEST PUSH2 0xC1 PUSH2 0x265 JUMP JUMPDEST PUSH2 0xC1 PUSH2 0x26B JUMP JUMPDEST PUSH2 0xC1 PUSH2 0x280 JUMP JUMPDEST PUSH2 0x11F PUSH2 0x286 JUMP JUMPDEST PUSH1 0x1 SLOAD DUP2 JUMP JUMPDEST TIMESTAMP DUP2 LT ISZERO PUSH2 0x1DB JUMPI PUSH1 0x40 DUP1 MLOAD PUSH3 0x461BCD PUSH1 0xE5 SHL DUP2 MSTORE PUSH1 0x20 PUSH1 0x4 DUP3 ADD MSTORE PUSH1 0x19 PUSH1 0x24 DUP3 ADD MSTORE PUSH32 0x44617465206D757374206265206120667574757265206F6E6500000000000000 PUSH1 0x44 DUP3 ADD MSTORE SWAP1 MLOAD SWAP1 DUP2 SWAP1 SUB PUSH1 0x64 ADD SWAP1 REVERT JUMPDEST PUSH1 0x0 NOT ADD PUSH1 0x2 SSTORE JUMP JUMPDEST PUSH2 0x1EC PUSH2 0x286 JUMP JUMPDEST ISZERO PUSH2 0x228 JUMPI PUSH1 0x40 MLOAD PUSH3 0x461BCD PUSH1 0xE5 SHL DUP2 MSTORE PUSH1 0x4 ADD DUP1 DUP1 PUSH1 0x20 ADD DUP3 DUP2 SUB DUP3 MSTORE PUSH1 0x26 DUP2 MSTORE PUSH1 0x20 ADD DUP1 PUSH2 0x290 PUSH1 0x26 SWAP2 CODECOPY PUSH1 0x40 ADD SWAP2 POP POP PUSH1 0x40 MLOAD DUP1 SWAP2 SUB SWAP1 REVERT JUMPDEST PUSH1 0x0 DUP1 SLOAD SWAP1 SWAP2 ADD SWAP1 SSTORE JUMP JUMPDEST PUSH1 0x0 SLOAD DUP2 JUMP JUMPDEST PUSH1 0x0 TIMESTAMP PUSH2 0x244 PUSH2 0x25B JUMP JUMPDEST LT ISZERO SWAP1 POP SWAP1 JUMP JUMPDEST PUSH1 0x3 SSTORE JUMP JUMPDEST PUSH2 0x259 TIMESTAMP PUSH2 0x186 JUMP JUMPDEST JUMP JUMPDEST PUSH1 0x3 SLOAD PUSH1 0x2 SLOAD ADD SWAP1 JUMP JUMPDEST PUSH1 0x3 SLOAD DUP2 JUMP JUMPDEST PUSH1 0x0 PUSH1 0x3 SLOAD PUSH1 0x0 SLOAD DUP2 PUSH2 0x27A JUMPI INVALID JUMPDEST DIV SWAP1 POP SWAP1 JUMP JUMPDEST PUSH1 0x2 SLOAD DUP2 JUMP JUMPDEST PUSH1 0x2 SLOAD TIMESTAMP LT ISZERO SWAP1 JUMP INVALID POP PUSH6 0x6E73696F6E65 PUSH19 0x206D7573742062652061637469766520746F20 PUSH4 0x6F6E7472 PUSH10 0x62757465A26469706673 PC 0x22 SLT KECCAK256 0xA7 SWAP14 0xED 0x27 GT PUSH25 0xDACF15B842CAA0A53A87E21E76743B8915E31896B9A01ECCC6 JUMP PUSH5 0x736F6C6343 STOP MOD 0xC STOP CALLER POP PUSH6 0x6E73696F6E65 PUSH19 0x2063616E6E6F74207265746972652061667465 PUSH19 0x206265696E67207265746972656443616E206E PUSH16 0x7420726574697265206265666F726520 PUSH4 0x72656174 PUSH10 0x6E672074686520616363 PUSH16 0x756E7450656E73696F6E65722063616E PUSH15 0x6F7420696E6372656173652062656E PUSH6 0x666974206475 PUSH19 0x6174696F6E2061667465722069742068617320 PUSH6 0x787069726564 NUMBER PUSH2 0x6E6E PUSH16 0x7420636F6E7472696275746520746F20 PUSH2 0x2072 PUSH6 0x746972656420 PUSH2 0x6363 PUSH16 0x756E74A2646970667358221220AA643C 0xD0 0x26 MSIZE PUSH24 0xFB544C1FD472F836DC5928ABAAD314FAF039812954D90459 GT PUSH5 0x736F6C6343 STOP MOD 0xC STOP CALLER ",
    "sha1": "c904d0e6df80fdd4678d01f074bc53c51dd942ed",
    "source": "// SPDX-License-Identifier: GPL-3.0\npragma solidity ^0.6.0;\n\nimport \"@openzeppelin/contracts/utils/ReentrancyGuard.sol\";\nimport \"./Pensioner.sol\";\n\n/// @title A representation of a pension system\n/// @author Alvaro SÃ¡nchez GarcÃ­a\n/// @dev This contract is intended to be run with Pensioner.sol\n/// @dev The use of a PROPORTION_FACTOR is to workaround the non existance of floating numbers\n/// @notice All timestamps are expressed using Unix time https://en.wikipedia.org/wiki/Unix_time\n/// @notice All durations are expressed in seconds\ncontract PensionSystem is ReentrancyGuard {\n    mapping(address => Pensioner) public pensioners;\n    mapping(address => uint8) public isPensionerCreated;\n    address payable[] public pensionerList;\n    uint256 public createdAtTime;\n    uint256 public lastPayoutDate;\n    uint256 public payoutInterval;\n\n    mapping(address => uint256) private _pensionerAmount;\n    address[] private _pensioners;\n\n    /// @notice Creates a pension system\n    /// @param _payoutInterval The interval at which the payouts will roll out\n    constructor(uint256 _payoutInterval) public ReentrancyGuard() {\n        createdAtTime = block.timestamp;\n        lastPayoutDate = createdAtTime;\n        payoutInterval = _payoutInterval;\n    }\n\n    /// @notice Creates a pensioner\n    /// @dev The address must not be already registered\n    /// @dev The retirementTime must be a future date\n    /// @param retirementTime Timestamp at which the new pensioner wants to retire\n    /// @param benefitDuration Timestamp representing the amount of time the pensioner will be elegible for benefits\n    function createPensioner(uint256 retirementTime, uint256 benefitDuration)\n        public\n    {\n        require(\n            retirementTime >= block.timestamp,\n            \"Can not retire before creating the account\"\n        );\n        require(\n            isPensionerCreated[msg.sender] == 0,\n            \"Pensioner already exists\"\n        );\n        Pensioner pensioner = new Pensioner(retirementTime, benefitDuration);\n        pensioners[msg.sender] = pensioner;\n        isPensionerCreated[msg.sender] = 1;\n        pensionerList.push(msg.sender);\n    }\n\n    /// @notice Changes a pensioner retirement time\n    /// @dev The pensioner must exist\n    /// @dev The date of retirement must be a future one\n    /// @dev The pensioner must not be retired\n    function setRetirementTime(uint256 retireDate) public {\n        require(isPensionerCreated[msg.sender] > 0, \"Pensioner does not exist\");\n        require(retireDate >= block.timestamp, \"Date must be a future one\");\n        Pensioner pensioner = pensioners[msg.sender];\n        require(\n            !pensioner.isPensionerRetired(),\n            \"Pensioner cannot retire after being retired\"\n        );\n        pensioners[msg.sender].setRetirement(retireDate);\n    }\n\n    /// @notice Changes a pensioner retirement time for now\n    /// @dev The pensioner must exist\n    /// @dev The pensioner must not be retired\n    function setRetirementTimeNow() public {\n        require(isPensionerCreated[msg.sender] > 0, \"Pensioner does not exist\");\n        Pensioner pensioner = pensioners[msg.sender];\n        require(\n            !pensioner.isPensionerRetired(),\n            \"Pensioner cannot retire after being retired\"\n        );\n        pensioners[msg.sender].setRetirementNow();\n    }\n\n    /// @notice Changes a pensioner benefit duration\n    /// @dev The pensioner must exist\n    /// @dev The duration must be positive\n    /// @dev The pension must be active\n    function setBenefitDuration(uint256 benefitDuration) public {\n        require(isPensionerCreated[msg.sender] > 0, \"Pensioner does not exist\");\n        require(benefitDuration >= 0, \"Duration must be greater than 0\");\n        Pensioner pensioner = pensioners[msg.sender];\n        require(\n            pensioner.getFinishPensionTime() >= block.timestamp,\n            \"Pensioner cannot increase benefit duration after it has expired\"\n        );\n        pensioners[msg.sender].setBenefitDuration(benefitDuration);\n    }\n\n    /// @notice Adds an amount to the pension attributable to a pensioner\n    /// @dev The pensioner must exist\n    /// @dev The pensioner must not be retired\n    function fundPension() public payable {\n        require(isPensionerCreated[msg.sender] > 0, \"Pensioner does not exist\");\n        Pensioner pensioner = pensioners[msg.sender];\n        require(\n            !pensioner.isPensionerRetired(),\n            \"Cannot contribute to a retired account\"\n        );\n        pensioner.addContribution(msg.value);\n    }\n\n    /// @notice Calculates the state of the pension system\n    /// @notice Pays the pensions to the elegible pensioners\n    /// @dev The pensioner must be retired\n    /// @dev The pensioner must have an active benefit window\n    /// @dev The pensioner must have funded the system\n    function calculateState() public nonReentrant {\n        if (lastPayoutDate + payoutInterval > block.timestamp) {\n            return;\n        } else {\n            lastPayoutDate = block.timestamp;\n        }\n        uint256 agreggatedContributions = 0;\n        uint256 totalToBeDistributed = getTotalToBeDistributed();\n\n        for (uint256 i = 0; i < pensionerList.length; i++) {\n            address pensionerAdd = pensionerList[i];\n            Pensioner pensioner = pensioners[pensionerAdd];\n            if (\n                pensioner.isPensionerRetired() &&\n                pensioner.isInsideBenefitDuration() &&\n                pensioner.totalContributedAmount() > 0\n            ) {\n                agreggatedContributions += pensioner.getWeightedContribution();\n            }\n        }\n\n        uint256 totalSplitPayout = 0;\n        for (uint256 i = 0; i < pensionerList.length; i++) {\n            address pensionerAdd = pensionerList[i];\n            Pensioner pensioner = pensioners[pensionerAdd];\n            if (\n                pensioner.isPensionerRetired() &&\n                pensioner.isInsideBenefitDuration() &&\n                pensioner.totalContributedAmount() > 0\n            ) {\n                uint256 pensionerPayout = 0;\n                if (i == pensionerList.length - 1) {\n                    pensionerPayout = totalToBeDistributed - totalSplitPayout;\n                } else {\n                    uint256 contributedByPensioner = pensioner\n                        .getWeightedContribution();\n                    pensionerPayout =\n                        (contributedByPensioner * totalToBeDistributed) /\n                        agreggatedContributions;\n                    totalSplitPayout += pensionerPayout;\n                }\n\n                _pensioners.push(pensionerAdd);\n                _pensionerAmount[pensionerAdd] = pensionerPayout;\n            }\n        }\n\n        for (uint256 i = 0; i < _pensioners.length; i++) {\n            address pensionerAdd = _pensioners[i];\n            uint256 amount = _pensionerAmount[pensionerAdd];\n            payable(pensionerAdd).transfer(amount);\n            delete _pensionerAmount[pensionerAdd];\n        }\n        delete _pensioners;\n    }\n\n    /// @notice Returns the mapping of pensioners in 2 separate arrays, one for address and another for\n    /// @notice pensioner address\n    /// @dev It is a workaround since we cannot return a mapping directly\n    function getPensionerList()\n        public\n        view\n        returns (address[] memory, Pensioner[] memory)\n    {\n        address[] memory mAddresses = new address[](pensionerList.length);\n        Pensioner[] memory mPensioners = new Pensioner[](pensionerList.length);\n        for (uint256 i = 0; i < pensionerList.length; i++) {\n            mAddresses[i] = pensionerList[i];\n            mPensioners[i] = pensioners[pensionerList[i]];\n        }\n        return (mAddresses, mPensioners);\n    }\n\n    /// @notice Calculates the total to be distributed based on the ratio of pensioners and contributors\n    /// @dev Only takes into account active pensioners and active contributors\n    /// @dev The value is given by the formula (lambda * (balance * 0.90))\n    /// @dev Lambda is the ratio\n    /// @dev The balance is not 100% given possible gas costs\n    function getTotalToBeDistributed() private view returns (uint256) {\n        uint256 lambda = 0;\n        uint256 numberOfContributors = 0;\n        uint256 numberOfPensioners = 0;\n        uint256 balance = address(this).balance;\n        for (uint256 i = 0; i < pensionerList.length; i++) {\n            address pensionerAdd = pensionerList[i];\n            Pensioner pensioner = pensioners[pensionerAdd];\n            if (pensioner.isPensionerRetired()) {\n                if (pensioner.isInsideBenefitDuration()) {\n                    numberOfPensioners++;\n                }\n            } else if (pensioner.totalContributedAmount() > 0) {\n                numberOfContributors++;\n            }\n        }\n        if (numberOfPensioners == 0) {\n            return 0;\n        }\n        if (numberOfContributors == 0) {\n            return (balance * 20) / 100;\n        }\n        if (numberOfContributors > numberOfPensioners) {\n            return (balance * 90) / 100;\n        }\n        lambda = (numberOfContributors * 100) / numberOfPensioners;\n        return (((balance * 90) / 100) * lambda) / 100;\n    }\n}\n",
    "sourcePath": "contracts/PensionSystem.sol",
    "type": "contract"
}