{
    "abi": [
        {
            "inputs": [
                {
                    "internalType": "uint256",
                    "name": "_retireAtDate",
                    "type": "uint256"
                },
                {
                    "internalType": "uint256",
                    "name": "_benefitDuration",
                    "type": "uint256"
                }
            ],
            "stateMutability": "nonpayable",
            "type": "constructor"
        },
        {
            "inputs": [
                {
                    "internalType": "uint256",
                    "name": "amount",
                    "type": "uint256"
                }
            ],
            "name": "addContribution",
            "outputs": [],
            "stateMutability": "nonpayable",
            "type": "function"
        },
        {
            "inputs": [],
            "name": "benefitDuration",
            "outputs": [
                {
                    "internalType": "uint256",
                    "name": "",
                    "type": "uint256"
                }
            ],
            "stateMutability": "view",
            "type": "function"
        },
        {
            "inputs": [],
            "name": "createdAtTime",
            "outputs": [
                {
                    "internalType": "uint256",
                    "name": "",
                    "type": "uint256"
                }
            ],
            "stateMutability": "view",
            "type": "function"
        },
        {
            "inputs": [],
            "name": "getFinishPensionTime",
            "outputs": [
                {
                    "internalType": "uint256",
                    "name": "",
                    "type": "uint256"
                }
            ],
            "stateMutability": "view",
            "type": "function"
        },
        {
            "inputs": [],
            "name": "getWeightedContribution",
            "outputs": [
                {
                    "internalType": "uint256",
                    "name": "",
                    "type": "uint256"
                }
            ],
            "stateMutability": "view",
            "type": "function"
        },
        {
            "inputs": [],
            "name": "isInsideBenefitDuration",
            "outputs": [
                {
                    "internalType": "bool",
                    "name": "",
                    "type": "bool"
                }
            ],
            "stateMutability": "view",
            "type": "function"
        },
        {
            "inputs": [],
            "name": "isPensionerRetired",
            "outputs": [
                {
                    "internalType": "bool",
                    "name": "",
                    "type": "bool"
                }
            ],
            "stateMutability": "view",
            "type": "function"
        },
        {
            "inputs": [],
            "name": "retireAtDate",
            "outputs": [
                {
                    "internalType": "uint256",
                    "name": "",
                    "type": "uint256"
                }
            ],
            "stateMutability": "view",
            "type": "function"
        },
        {
            "inputs": [
                {
                    "internalType": "uint256",
                    "name": "_benefitDuration",
                    "type": "uint256"
                }
            ],
            "name": "setBenefitDuration",
            "outputs": [],
            "stateMutability": "nonpayable",
            "type": "function"
        },
        {
            "inputs": [
                {
                    "internalType": "uint256",
                    "name": "retireDate",
                    "type": "uint256"
                }
            ],
            "name": "setRetirement",
            "outputs": [],
            "stateMutability": "nonpayable",
            "type": "function"
        },
        {
            "inputs": [],
            "name": "setRetirementNow",
            "outputs": [],
            "stateMutability": "nonpayable",
            "type": "function"
        },
        {
            "inputs": [],
            "name": "totalContributedAmount",
            "outputs": [
                {
                    "internalType": "uint256",
                    "name": "",
                    "type": "uint256"
                }
            ],
            "stateMutability": "view",
            "type": "function"
        }
    ],
    "bytecode": "608060405234801561001057600080fd5b506040516103473803806103478339818101604052604081101561003357600080fd5b50805160209091015160008055426001556002919091556003556102eb8061005c6000396000f3fe608060405234801561001057600080fd5b50600436106100b45760003560e01c80636c1fe8db116100715780636c1fe8db146101505780638c178094146101585780639e0c793014610160578063d26e7b4d14610168578063e29796bf14610170578063f240313f14610178576100b4565b80630b34a165146100b957806316e4ea6c146100d357806330d2c0d3146100f257806344c4dc311461010f5780635b57a1e514610117578063685e886a14610133575b600080fd5b6100c1610180565b60408051918252519081900360200190f35b6100f0600480360360208110156100e957600080fd5b5035610186565b005b6100f06004803603602081101561010857600080fd5b50356101e4565b6100c1610233565b61011f610239565b604080519115158252519081900360200190f35b6100f06004803603602081101561014957600080fd5b503561024b565b6100f0610250565b6100c161025b565b6100c1610265565b6100c161026b565b6100c1610280565b61011f610286565b60015481565b428110156101db576040805162461bcd60e51b815260206004820152601960248201527f44617465206d757374206265206120667574757265206f6e6500000000000000604482015290519081900360640190fd5b60001901600255565b6101ec610286565b156102285760405162461bcd60e51b81526004018080602001828103825260268152602001806102906026913960400191505060405180910390fd5b600080549091019055565b60005481565b60004261024461025b565b1015905090565b600355565b61025942610186565b565b6003546002540190565b60035481565b60006003546000548161027a57fe5b04905090565b60025481565b6002544210159056fe50656e73696f6e6572206d7573742062652061637469766520746f20636f6e74726962757465a26469706673582212205cb87e6af9454fdd5ee6b4fb9ee01e4e70417184008ded65af3ff28cecc97ed264736f6c634300060c0033",
    "bytecodeSha1": "b3940dc7a7e7b5eb554a9c2a6dc4709e4b1194b3",
    "compiler": {
        "evm_version": "istanbul",
        "optimizer": {
            "enabled": true,
            "runs": 200
        },
        "version": "0.6.12+commit.27d51765"
    },
    "contractName": "Pensioner",
    "language": "Solidity",
    "natspec": {
        "author": "Alvaro SÃ¡nchez GarcÃ­a",
        "details": "This contract is intended to be run with PensionSystem.sol",
        "kind": "dev",
        "methods": {
            "addContribution(uint256)": {
                "notice": "Adds a contribution to the total amount contributed by the pensioner",
                "params": {
                    "amount": "The new value to be added to the total amount"
                }
            },
            "constructor": {
                "params": {
                    "_benefitDuration": "Timestamp representing the amount of time the pensioner will be elegible for benefits",
                    "_retireAtDate": "Timestamp at which the new pensioner wants to retire"
                }
            },
            "getFinishPensionTime()": {
                "notice": "Returns the date at which the pensioner will stop receiving funds"
            },
            "isInsideBenefitDuration()": {
                "notice": "Returns whether a pension is inside his benefit duration"
            },
            "isPensionerRetired()": {
                "notice": "Returns whether a pensioner is retired or not"
            },
            "setBenefitDuration(uint256)": {
                "notice": "Changes a pensioner benefit duration"
            },
            "setRetirement(uint256)": {
                "details": "We substract one just in case block.timestamp doesnt change when performing the next operation",
                "notice": "Changes a pensioner retirement date"
            },
            "setRetirementNow()": {
                "notice": "Retires a pensioner at the current block timestamp"
            }
        },
        "notice": "All timestamps are expressed using Unix time https://en.wikipedia.org/wiki/Unix_timeAll durations are expressed in seconds",
        "title": "A representation of a pensioner",
        "version": 1
    },
    "opcodes": "PUSH1 0x80 PUSH1 0x40 MSTORE CALLVALUE DUP1 ISZERO PUSH2 0x10 JUMPI PUSH1 0x0 DUP1 REVERT JUMPDEST POP PUSH1 0x4 CALLDATASIZE LT PUSH2 0xB4 JUMPI PUSH1 0x0 CALLDATALOAD PUSH1 0xE0 SHR DUP1 PUSH4 0x6C1FE8DB GT PUSH2 0x71 JUMPI DUP1 PUSH4 0x6C1FE8DB EQ PUSH2 0x150 JUMPI DUP1 PUSH4 0x8C178094 EQ PUSH2 0x158 JUMPI DUP1 PUSH4 0x9E0C7930 EQ PUSH2 0x160 JUMPI DUP1 PUSH4 0xD26E7B4D EQ PUSH2 0x168 JUMPI DUP1 PUSH4 0xE29796BF EQ PUSH2 0x170 JUMPI DUP1 PUSH4 0xF240313F EQ PUSH2 0x178 JUMPI PUSH2 0xB4 JUMP JUMPDEST DUP1 PUSH4 0xB34A165 EQ PUSH2 0xB9 JUMPI DUP1 PUSH4 0x16E4EA6C EQ PUSH2 0xD3 JUMPI DUP1 PUSH4 0x30D2C0D3 EQ PUSH2 0xF2 JUMPI DUP1 PUSH4 0x44C4DC31 EQ PUSH2 0x10F JUMPI DUP1 PUSH4 0x5B57A1E5 EQ PUSH2 0x117 JUMPI DUP1 PUSH4 0x685E886A EQ PUSH2 0x133 JUMPI JUMPDEST PUSH1 0x0 DUP1 REVERT JUMPDEST PUSH2 0xC1 PUSH2 0x180 JUMP JUMPDEST PUSH1 0x40 DUP1 MLOAD SWAP2 DUP3 MSTORE MLOAD SWAP1 DUP2 SWAP1 SUB PUSH1 0x20 ADD SWAP1 RETURN JUMPDEST PUSH2 0xF0 PUSH1 0x4 DUP1 CALLDATASIZE SUB PUSH1 0x20 DUP2 LT ISZERO PUSH2 0xE9 JUMPI PUSH1 0x0 DUP1 REVERT JUMPDEST POP CALLDATALOAD PUSH2 0x186 JUMP JUMPDEST STOP JUMPDEST PUSH2 0xF0 PUSH1 0x4 DUP1 CALLDATASIZE SUB PUSH1 0x20 DUP2 LT ISZERO PUSH2 0x108 JUMPI PUSH1 0x0 DUP1 REVERT JUMPDEST POP CALLDATALOAD PUSH2 0x1E4 JUMP JUMPDEST PUSH2 0xC1 PUSH2 0x233 JUMP JUMPDEST PUSH2 0x11F PUSH2 0x239 JUMP JUMPDEST PUSH1 0x40 DUP1 MLOAD SWAP2 ISZERO ISZERO DUP3 MSTORE MLOAD SWAP1 DUP2 SWAP1 SUB PUSH1 0x20 ADD SWAP1 RETURN JUMPDEST PUSH2 0xF0 PUSH1 0x4 DUP1 CALLDATASIZE SUB PUSH1 0x20 DUP2 LT ISZERO PUSH2 0x149 JUMPI PUSH1 0x0 DUP1 REVERT JUMPDEST POP CALLDATALOAD PUSH2 0x24B JUMP JUMPDEST PUSH2 0xF0 PUSH2 0x250 JUMP JUMPDEST PUSH2 0xC1 PUSH2 0x25B JUMP JUMPDEST PUSH2 0xC1 PUSH2 0x265 JUMP JUMPDEST PUSH2 0xC1 PUSH2 0x26B JUMP JUMPDEST PUSH2 0xC1 PUSH2 0x280 JUMP JUMPDEST PUSH2 0x11F PUSH2 0x286 JUMP JUMPDEST PUSH1 0x1 SLOAD DUP2 JUMP JUMPDEST TIMESTAMP DUP2 LT ISZERO PUSH2 0x1DB JUMPI PUSH1 0x40 DUP1 MLOAD PUSH3 0x461BCD PUSH1 0xE5 SHL DUP2 MSTORE PUSH1 0x20 PUSH1 0x4 DUP3 ADD MSTORE PUSH1 0x19 PUSH1 0x24 DUP3 ADD MSTORE PUSH32 0x44617465206D757374206265206120667574757265206F6E6500000000000000 PUSH1 0x44 DUP3 ADD MSTORE SWAP1 MLOAD SWAP1 DUP2 SWAP1 SUB PUSH1 0x64 ADD SWAP1 REVERT JUMPDEST PUSH1 0x0 NOT ADD PUSH1 0x2 SSTORE JUMP JUMPDEST PUSH2 0x1EC PUSH2 0x286 JUMP JUMPDEST ISZERO PUSH2 0x228 JUMPI PUSH1 0x40 MLOAD PUSH3 0x461BCD PUSH1 0xE5 SHL DUP2 MSTORE PUSH1 0x4 ADD DUP1 DUP1 PUSH1 0x20 ADD DUP3 DUP2 SUB DUP3 MSTORE PUSH1 0x26 DUP2 MSTORE PUSH1 0x20 ADD DUP1 PUSH2 0x290 PUSH1 0x26 SWAP2 CODECOPY PUSH1 0x40 ADD SWAP2 POP POP PUSH1 0x40 MLOAD DUP1 SWAP2 SUB SWAP1 REVERT JUMPDEST PUSH1 0x0 DUP1 SLOAD SWAP1 SWAP2 ADD SWAP1 SSTORE JUMP JUMPDEST PUSH1 0x0 SLOAD DUP2 JUMP JUMPDEST PUSH1 0x0 TIMESTAMP PUSH2 0x244 PUSH2 0x25B JUMP JUMPDEST LT ISZERO SWAP1 POP SWAP1 JUMP JUMPDEST PUSH1 0x3 SSTORE JUMP JUMPDEST PUSH2 0x259 TIMESTAMP PUSH2 0x186 JUMP JUMPDEST JUMP JUMPDEST PUSH1 0x3 SLOAD PUSH1 0x2 SLOAD ADD SWAP1 JUMP JUMPDEST PUSH1 0x3 SLOAD DUP2 JUMP JUMPDEST PUSH1 0x0 PUSH1 0x3 SLOAD PUSH1 0x0 SLOAD DUP2 PUSH2 0x27A JUMPI INVALID JUMPDEST DIV SWAP1 POP SWAP1 JUMP JUMPDEST PUSH1 0x2 SLOAD DUP2 JUMP JUMPDEST PUSH1 0x2 SLOAD TIMESTAMP LT ISZERO SWAP1 JUMP INVALID POP PUSH6 0x6E73696F6E65 PUSH19 0x206D7573742062652061637469766520746F20 PUSH4 0x6F6E7472 PUSH10 0x62757465A26469706673 PC 0x22 SLT KECCAK256 0x5C 0xB8 PUSH31 0x6AF9454FDD5EE6B4FB9EE01E4E70417184008DED65AF3FF28CECC97ED26473 PUSH16 0x6C634300060C00330000000000000000 ",
    "sha1": "599b46323ff2511123193afcef93c709f246f147",
    "source": "// SPDX-License-Identifier: GPL-3.0\npragma solidity ^0.6.0;\n\n/// @title A representation of a pensioner\n/// @author Alvaro SÃ¡nchez GarcÃ­a\n/// @dev This contract is intended to be run with PensionSystem.sol\n/// @notice All timestamps are expressed using Unix time https://en.wikipedia.org/wiki/Unix_time\n/// @notice All durations are expressed in seconds\ncontract Pensioner {\n    uint256 public totalContributedAmount;\n    uint256 public createdAtTime;\n    uint256 public retireAtDate;\n    uint256 public benefitDuration;\n\n    /// @notice Creates a pensioner\n    /// @param _retireAtDate Timestamp at which the new pensioner wants to retire\n    /// @param _benefitDuration Timestamp representing the amount of time the pensioner will be elegible for benefits\n    constructor(uint256 _retireAtDate, uint256 _benefitDuration) public {\n        totalContributedAmount = 0;\n        createdAtTime = block.timestamp;\n        retireAtDate = _retireAtDate;\n        benefitDuration = _benefitDuration;\n    }\n\n    /// @notice Retires a pensioner at the current block timestamp\n    function setRetirementNow() public {\n        setRetirement(block.timestamp);\n    }\n\n    /// @notice Changes a pensioner retirement date\n    /// @dev We substract one just in case block.timestamp doesnt change when performing the next operation\n    function setRetirement(uint256 retireDate) public {\n        require(retireDate >= block.timestamp, \"Date must be a future one\");\n        retireAtDate = retireDate - 1;\n    }\n\n    /// @notice Changes a pensioner benefit duration\n    function setBenefitDuration(uint256 _benefitDuration) public {\n        benefitDuration = _benefitDuration;\n    }\n\n    /// @notice Adds a contribution to the total amount contributed by the pensioner\n    /// @param amount The new value to be added to the total amount\n    function addContribution(uint256 amount) public {\n        require(\n            !isPensionerRetired(),\n            \"Pensioner must be active to contribute\"\n        );\n        totalContributedAmount += amount;\n    }\n\n    /// @notice Returns the date at which the pensioner will stop receiving funds\n    function getFinishPensionTime() public view returns (uint256) {\n        return retireAtDate + benefitDuration;\n    }\n\n    /// @notice Returns whether a pensioner is retired or not\n    function isPensionerRetired() public view returns (bool) {\n        return retireAtDate <= block.timestamp;\n    }\n\n    /// @notice Returns whether a pension is inside his benefit duration\n    function isInsideBenefitDuration() public view returns (bool) {\n        return getFinishPensionTime() >= block.timestamp;\n    }\n\n    function getWeightedContribution() public view returns (uint256) {\n        return totalContributedAmount / benefitDuration;\n    }\n}\n",
    "sourcePath": "contracts/Pensioner.sol",
    "type": "contract"
}